{
  "_format": "hh-sol-artifact-1",
  "contractName": "Domains",
  "sourceName": "contracts/domain.sol",
  "abi": [
    {
      "inputs": [
        {
          "internalType": "string",
          "name": "_tld",
          "type": "string"
        }
      ],
      "stateMutability": "payable",
      "type": "constructor"
    },
    {
      "anonymous": false,
      "inputs": [
        {
          "indexed": true,
          "internalType": "address",
          "name": "owner",
          "type": "address"
        },
        {
          "indexed": true,
          "internalType": "address",
          "name": "approved",
          "type": "address"
        },
        {
          "indexed": true,
          "internalType": "uint256",
          "name": "tokenId",
          "type": "uint256"
        }
      ],
      "name": "Approval",
      "type": "event"
    },
    {
      "anonymous": false,
      "inputs": [
        {
          "indexed": true,
          "internalType": "address",
          "name": "owner",
          "type": "address"
        },
        {
          "indexed": true,
          "internalType": "address",
          "name": "operator",
          "type": "address"
        },
        {
          "indexed": false,
          "internalType": "bool",
          "name": "approved",
          "type": "bool"
        }
      ],
      "name": "ApprovalForAll",
      "type": "event"
    },
    {
      "anonymous": false,
      "inputs": [
        {
          "indexed": true,
          "internalType": "address",
          "name": "from",
          "type": "address"
        },
        {
          "indexed": true,
          "internalType": "address",
          "name": "to",
          "type": "address"
        },
        {
          "indexed": true,
          "internalType": "uint256",
          "name": "tokenId",
          "type": "uint256"
        }
      ],
      "name": "Transfer",
      "type": "event"
    },
    {
      "inputs": [
        {
          "internalType": "address",
          "name": "to",
          "type": "address"
        },
        {
          "internalType": "uint256",
          "name": "tokenId",
          "type": "uint256"
        }
      ],
      "name": "approve",
      "outputs": [],
      "stateMutability": "nonpayable",
      "type": "function"
    },
    {
      "inputs": [
        {
          "internalType": "address",
          "name": "owner",
          "type": "address"
        }
      ],
      "name": "balanceOf",
      "outputs": [
        {
          "internalType": "uint256",
          "name": "",
          "type": "uint256"
        }
      ],
      "stateMutability": "view",
      "type": "function"
    },
    {
      "inputs": [
        {
          "internalType": "string",
          "name": "",
          "type": "string"
        }
      ],
      "name": "domains",
      "outputs": [
        {
          "internalType": "address",
          "name": "",
          "type": "address"
        }
      ],
      "stateMutability": "view",
      "type": "function"
    },
    {
      "inputs": [
        {
          "internalType": "string",
          "name": "name",
          "type": "string"
        }
      ],
      "name": "getAddress",
      "outputs": [
        {
          "internalType": "address",
          "name": "",
          "type": "address"
        }
      ],
      "stateMutability": "view",
      "type": "function"
    },
    {
      "inputs": [
        {
          "internalType": "uint256",
          "name": "tokenId",
          "type": "uint256"
        }
      ],
      "name": "getApproved",
      "outputs": [
        {
          "internalType": "address",
          "name": "",
          "type": "address"
        }
      ],
      "stateMutability": "view",
      "type": "function"
    },
    {
      "inputs": [
        {
          "internalType": "address",
          "name": "owner",
          "type": "address"
        },
        {
          "internalType": "address",
          "name": "operator",
          "type": "address"
        }
      ],
      "name": "isApprovedForAll",
      "outputs": [
        {
          "internalType": "bool",
          "name": "",
          "type": "bool"
        }
      ],
      "stateMutability": "view",
      "type": "function"
    },
    {
      "inputs": [],
      "name": "name",
      "outputs": [
        {
          "internalType": "string",
          "name": "",
          "type": "string"
        }
      ],
      "stateMutability": "view",
      "type": "function"
    },
    {
      "inputs": [
        {
          "internalType": "uint256",
          "name": "tokenId",
          "type": "uint256"
        }
      ],
      "name": "ownerOf",
      "outputs": [
        {
          "internalType": "address",
          "name": "",
          "type": "address"
        }
      ],
      "stateMutability": "view",
      "type": "function"
    },
    {
      "inputs": [
        {
          "internalType": "string",
          "name": "name",
          "type": "string"
        }
      ],
      "name": "price",
      "outputs": [
        {
          "internalType": "uint256",
          "name": "",
          "type": "uint256"
        }
      ],
      "stateMutability": "pure",
      "type": "function"
    },
    {
      "inputs": [
        {
          "internalType": "string",
          "name": "",
          "type": "string"
        }
      ],
      "name": "records",
      "outputs": [
        {
          "internalType": "string",
          "name": "",
          "type": "string"
        }
      ],
      "stateMutability": "view",
      "type": "function"
    },
    {
      "inputs": [
        {
          "internalType": "string",
          "name": "name",
          "type": "string"
        }
      ],
      "name": "register",
      "outputs": [],
      "stateMutability": "payable",
      "type": "function"
    },
    {
      "inputs": [
        {
          "internalType": "address",
          "name": "from",
          "type": "address"
        },
        {
          "internalType": "address",
          "name": "to",
          "type": "address"
        },
        {
          "internalType": "uint256",
          "name": "tokenId",
          "type": "uint256"
        }
      ],
      "name": "safeTransferFrom",
      "outputs": [],
      "stateMutability": "nonpayable",
      "type": "function"
    },
    {
      "inputs": [
        {
          "internalType": "address",
          "name": "from",
          "type": "address"
        },
        {
          "internalType": "address",
          "name": "to",
          "type": "address"
        },
        {
          "internalType": "uint256",
          "name": "tokenId",
          "type": "uint256"
        },
        {
          "internalType": "bytes",
          "name": "data",
          "type": "bytes"
        }
      ],
      "name": "safeTransferFrom",
      "outputs": [],
      "stateMutability": "nonpayable",
      "type": "function"
    },
    {
      "inputs": [
        {
          "internalType": "address",
          "name": "operator",
          "type": "address"
        },
        {
          "internalType": "bool",
          "name": "approved",
          "type": "bool"
        }
      ],
      "name": "setApprovalForAll",
      "outputs": [],
      "stateMutability": "nonpayable",
      "type": "function"
    },
    {
      "inputs": [
        {
          "internalType": "string",
          "name": "name",
          "type": "string"
        },
        {
          "internalType": "string",
          "name": "record",
          "type": "string"
        }
      ],
      "name": "setRecord",
      "outputs": [],
      "stateMutability": "nonpayable",
      "type": "function"
    },
    {
      "inputs": [
        {
          "internalType": "bytes4",
          "name": "interfaceId",
          "type": "bytes4"
        }
      ],
      "name": "supportsInterface",
      "outputs": [
        {
          "internalType": "bool",
          "name": "",
          "type": "bool"
        }
      ],
      "stateMutability": "view",
      "type": "function"
    },
    {
      "inputs": [],
      "name": "symbol",
      "outputs": [
        {
          "internalType": "string",
          "name": "",
          "type": "string"
        }
      ],
      "stateMutability": "view",
      "type": "function"
    },
    {
      "inputs": [],
      "name": "tld",
      "outputs": [
        {
          "internalType": "string",
          "name": "",
          "type": "string"
        }
      ],
      "stateMutability": "view",
      "type": "function"
    },
    {
      "inputs": [
        {
          "internalType": "uint256",
          "name": "tokenId",
          "type": "uint256"
        }
      ],
      "name": "tokenURI",
      "outputs": [
        {
          "internalType": "string",
          "name": "",
          "type": "string"
        }
      ],
      "stateMutability": "view",
      "type": "function"
    },
    {
      "inputs": [
        {
          "internalType": "address",
          "name": "from",
          "type": "address"
        },
        {
          "internalType": "address",
          "name": "to",
          "type": "address"
        },
        {
          "internalType": "uint256",
          "name": "tokenId",
          "type": "uint256"
        }
      ],
      "name": "transferFrom",
      "outputs": [],
      "stateMutability": "nonpayable",
      "type": "function"
    }
  ],
  "bytecode": "0x6080604052604051806108a0016040528061086b815260200162004b0261086b913960099081620000319190620004de565b506040518060400160405280600d81526020017f3c2f746578743e3c2f7376673e00000000000000000000000000000000000000815250600a9081620000789190620004de565b506040516200536d3803806200536d83398181016040528101906200009e919062000729565b6040518060400160405280601481526020017f47756a61726174204e616d6520536572766963650000000000000000000000008152506040518060400160405280600381526020017f474e53000000000000000000000000000000000000000000000000000000000081525081600090816200011b9190620004de565b5080600190816200012d9190620004de565b5050508060089081620001419190620004de565b506200018e6040518060400160405280601881526020017f2573206e616d652073657276696365206465706c6f7965640000000000000000815250826200019560201b620013621760201c565b5062000807565b620002378282604051602401620001ae929190620007cc565b6040516020818303038152906040527f4b5c4277000000000000000000000000000000000000000000000000000000007bffffffffffffffffffffffffffffffffffffffffffffffffffffffff19166020820180517bffffffffffffffffffffffffffffffffffffffffffffffffffffffff83818316178352505050506200023b60201b60201c565b5050565b60008151905060006a636f6e736f6c652e6c6f679050602083016000808483855afa5050505050565b600081519050919050565b7f4e487b7100000000000000000000000000000000000000000000000000000000600052604160045260246000fd5b7f4e487b7100000000000000000000000000000000000000000000000000000000600052602260045260246000fd5b60006002820490506001821680620002e657607f821691505b602082108103620002fc57620002fb6200029e565b5b50919050565b60008190508160005260206000209050919050565b60006020601f8301049050919050565b600082821b905092915050565b600060088302620003667fffffffffffffffffffffffffffffffffffffffffffffffffffffffffffffffff8262000327565b62000372868362000327565b95508019841693508086168417925050509392505050565b6000819050919050565b6000819050919050565b6000620003bf620003b9620003b3846200038a565b62000394565b6200038a565b9050919050565b6000819050919050565b620003db836200039e565b620003f3620003ea82620003c6565b84845462000334565b825550505050565b600090565b6200040a620003fb565b62000417818484620003d0565b505050565b5b818110156200043f576200043360008262000400565b6001810190506200041d565b5050565b601f8211156200048e57620004588162000302565b620004638462000317565b8101602085101562000473578190505b6200048b620004828562000317565b8301826200041c565b50505b505050565b600082821c905092915050565b6000620004b36000198460080262000493565b1980831691505092915050565b6000620004ce8383620004a0565b9150826002028217905092915050565b620004e98262000264565b67ffffffffffffffff8111156200050557620005046200026f565b5b620005118254620002cd565b6200051e82828562000443565b600060209050601f83116001811462000556576000841562000541578287015190505b6200054d8582620004c0565b865550620005bd565b601f198416620005668662000302565b60005b82811015620005905784890151825560018201915060208501945060208101905062000569565b86831015620005b05784890151620005ac601f891682620004a0565b8355505b6001600288020188555050505b505050505050565b6000604051905090565b600080fd5b600080fd5b600080fd5b600080fd5b6000601f19601f8301169050919050565b620005ff82620005e3565b810181811067ffffffffffffffff821117156200062157620006206200026f565b5b80604052505050565b600062000636620005c5565b9050620006448282620005f4565b919050565b600067ffffffffffffffff8211156200066757620006666200026f565b5b6200067282620005e3565b9050602081019050919050565b60005b838110156200069f57808201518184015260208101905062000682565b60008484015250505050565b6000620006c2620006bc8462000649565b6200062a565b905082815260208101848484011115620006e157620006e0620005de565b5b620006ee8482856200067f565b509392505050565b600082601f8301126200070e576200070d620005d9565b5b815162000720848260208601620006ab565b91505092915050565b600060208284031215620007425762000741620005cf565b5b600082015167ffffffffffffffff811115620007635762000762620005d4565b5b6200077184828501620006f6565b91505092915050565b600082825260208201905092915050565b6000620007988262000264565b620007a481856200077a565b9350620007b68185602086016200067f565b620007c181620005e3565b840191505092915050565b60006040820190508181036000830152620007e881856200078b565b90508181036020830152620007fe81846200078b565b90509392505050565b6142eb80620008176000396000f3fe60806040526004361061011f5760003560e01c806370a08231116100a0578063c1880a9811610064578063c1880a981461041d578063c87b56dd14610446578063e985e9c514610483578063f2c298be146104c0578063fe2c6198146104dc5761011f565b806370a082311461032657806395d89b4114610363578063a22cb4651461038e578063b88d4fde146103b7578063bf40fac1146103e05761011f565b806326449235116100e7578063264492351461021b5780632d5514321461025857806342842e0e14610283578063541e771d146102ac5780636352211e146102e95761011f565b806301ffc9a71461012457806306fdde0314610161578063081812fc1461018c578063095ea7b3146101c957806323b872dd146101f2575b600080fd5b34801561013057600080fd5b5061014b600480360381019061014691906128cd565b610519565b6040516101589190612915565b60405180910390f35b34801561016d57600080fd5b506101766105fb565b60405161018391906129c0565b60405180910390f35b34801561019857600080fd5b506101b360048036038101906101ae9190612a18565b61068d565b6040516101c09190612a86565b60405180910390f35b3480156101d557600080fd5b506101f060048036038101906101eb9190612acd565b6106d3565b005b3480156101fe57600080fd5b5061021960048036038101906102149190612b0d565b6107ea565b005b34801561022757600080fd5b50610242600480360381019061023d9190612c95565b61084a565b60405161024f9190612a86565b60405180910390f35b34801561026457600080fd5b5061026d610893565b60405161027a91906129c0565b60405180910390f35b34801561028f57600080fd5b506102aa60048036038101906102a59190612b0d565b610921565b005b3480156102b857600080fd5b506102d360048036038101906102ce9190612c95565b610941565b6040516102e091906129c0565b60405180910390f35b3480156102f557600080fd5b50610310600480360381019061030b9190612a18565b6109f7565b60405161031d9190612a86565b60405180910390f35b34801561033257600080fd5b5061034d60048036038101906103489190612cde565b610a7d565b60405161035a9190612d1a565b60405180910390f35b34801561036f57600080fd5b50610378610b34565b60405161038591906129c0565b60405180910390f35b34801561039a57600080fd5b506103b560048036038101906103b09190612d61565b610bc6565b005b3480156103c357600080fd5b506103de60048036038101906103d99190612e42565b610bdc565b005b3480156103ec57600080fd5b5061040760048036038101906104029190612f25565b610c3e565b6040516104149190612a86565b60405180910390f35b34801561042957600080fd5b50610444600480360381019061043f9190612f72565b610c89565b005b34801561045257600080fd5b5061046d60048036038101906104689190612a18565b610d37565b60405161047a91906129c0565b60405180910390f35b34801561048f57600080fd5b506104aa60048036038101906104a59190612ff3565b610e49565b6040516104b79190612915565b60405180910390f35b6104da60048036038101906104d59190612f25565b610edd565b005b3480156104e857600080fd5b5061050360048036038101906104fe9190612f25565b6112be565b6040516105109190612d1a565b60405180910390f35b60007f80ac58cd000000000000000000000000000000000000000000000000000000007bffffffffffffffffffffffffffffffffffffffffffffffffffffffff1916827bffffffffffffffffffffffffffffffffffffffffffffffffffffffff191614806105e457507f5b5e139f000000000000000000000000000000000000000000000000000000007bffffffffffffffffffffffffffffffffffffffffffffffffffffffff1916827bffffffffffffffffffffffffffffffffffffffffffffffffffffffff1916145b806105f457506105f3826113fe565b5b9050919050565b60606000805461060a90613062565b80601f016020809104026020016040519081016040528092919081815260200182805461063690613062565b80156106835780601f1061065857610100808354040283529160200191610683565b820191906000526020600020905b81548152906001019060200180831161066657829003601f168201915b5050505050905090565b600061069882611468565b6004600083815260200190815260200160002060009054906101000a900473ffffffffffffffffffffffffffffffffffffffff169050919050565b60006106de826109f7565b90508073ffffffffffffffffffffffffffffffffffffffff168373ffffffffffffffffffffffffffffffffffffffff160361074e576040517f08c379a000000000000000000000000000000000000000000000000000000000815260040161074590613105565b60405180910390fd5b8073ffffffffffffffffffffffffffffffffffffffff1661076d6114b3565b73ffffffffffffffffffffffffffffffffffffffff16148061079c575061079b816107966114b3565b610e49565b5b6107db576040517f08c379a00000000000000000000000000000000000000000000000000000000081526004016107d290613197565b60405180910390fd5b6107e583836114bb565b505050565b6107fb6107f56114b3565b82611574565b61083a576040517f08c379a000000000000000000000000000000000000000000000000000000000815260040161083190613229565b60405180910390fd5b610845838383611609565b505050565b600b818051602081018201805184825260208301602085012081835280955050505050506000915054906101000a900473ffffffffffffffffffffffffffffffffffffffff1681565b600880546108a090613062565b80601f01602080910402602001604051908101604052809291908181526020018280546108cc90613062565b80156109195780601f106108ee57610100808354040283529160200191610919565b820191906000526020600020905b8154815290600101906020018083116108fc57829003601f168201915b505050505081565b61093c83838360405180602001604052806000815250610bdc565b505050565b600c81805160208101820180518482526020830160208501208183528095505050505050600091509050805461097690613062565b80601f01602080910402602001604051908101604052809291908181526020018280546109a290613062565b80156109ef5780601f106109c4576101008083540402835291602001916109ef565b820191906000526020600020905b8154815290600101906020018083116109d257829003601f168201915b505050505081565b600080610a0383611902565b9050600073ffffffffffffffffffffffffffffffffffffffff168173ffffffffffffffffffffffffffffffffffffffff1603610a74576040517f08c379a0000000000000000000000000000000000000000000000000000000008152600401610a6b90613295565b60405180910390fd5b80915050919050565b60008073ffffffffffffffffffffffffffffffffffffffff168273ffffffffffffffffffffffffffffffffffffffff1603610aed576040517f08c379a0000000000000000000000000000000000000000000000000000000008152600401610ae490613327565b60405180910390fd5b600360008373ffffffffffffffffffffffffffffffffffffffff1673ffffffffffffffffffffffffffffffffffffffff168152602001908152602001600020549050919050565b606060018054610b4390613062565b80601f0160208091040260200160405190810160405280929190818152602001828054610b6f90613062565b8015610bbc5780601f10610b9157610100808354040283529160200191610bbc565b820191906000526020600020905b815481529060010190602001808311610b9f57829003601f168201915b5050505050905090565b610bd8610bd16114b3565b838361193f565b5050565b610bed610be76114b3565b83611574565b610c2c576040517f08c379a0000000000000000000000000000000000000000000000000000000008152600401610c2390613229565b60405180910390fd5b610c3884848484611aab565b50505050565b6000600b8383604051610c52929190613377565b908152602001604051809103902060009054906101000a900473ffffffffffffffffffffffffffffffffffffffff16905092915050565b3373ffffffffffffffffffffffffffffffffffffffff16600b8585604051610cb2929190613377565b908152602001604051809103902060009054906101000a900473ffffffffffffffffffffffffffffffffffffffff1673ffffffffffffffffffffffffffffffffffffffff1614610d0157600080fd5b8181600c8686604051610d15929190613377565b90815260200160405180910390209182610d30929190613547565b5050505050565b6060610d4282611468565b6000600660008481526020019081526020016000208054610d6290613062565b80601f0160208091040260200160405190810160405280929190818152602001828054610d8e90613062565b8015610ddb5780601f10610db057610100808354040283529160200191610ddb565b820191906000526020600020905b815481529060010190602001808311610dbe57829003601f168201915b505050505090506000610dec611b07565b90506000815103610e01578192505050610e44565b600082511115610e36578082604051602001610e1e929190613648565b60405160208183030381529060405292505050610e44565b610e3f84611b1e565b925050505b919050565b6000600560008473ffffffffffffffffffffffffffffffffffffffff1673ffffffffffffffffffffffffffffffffffffffff16815260200190815260200160002060008373ffffffffffffffffffffffffffffffffffffffff1673ffffffffffffffffffffffffffffffffffffffff16815260200190815260200160002060009054906101000a900460ff16905092915050565b600073ffffffffffffffffffffffffffffffffffffffff16600b8383604051610f07929190613377565b908152602001604051809103902060009054906101000a900473ffffffffffffffffffffffffffffffffffffffff1673ffffffffffffffffffffffffffffffffffffffff1614610f5657600080fd5b6000610f6283836112be565b905080341015610fa7576040517f08c379a0000000000000000000000000000000000000000000000000000000008152600401610f9e906136b8565b60405180910390fd5b600083836008604051602001610fbf939291906137a7565b60405160208183030381529060405290506000600982600a604051602001610fe9939291906137d8565b604051602081830303815290604052905060006110066007611b86565b9050600061105787878080601f016020809104026020016040519081016040528093929190818152602001838380828437600081840152601f19601f82011690508083019250505050505050611b94565b9050600061106482611d49565b905061115860405180606001604052806031815260200161420c6031913989898080601f016020809104026020016040519081016040528093929190818152602001838380828437600081840152601f19601f82011690508083019250505050505050600880546110d490613062565b80601f016020809104026020016040519081016040528092919081815260200182805461110090613062565b801561114d5780601f106111225761010080835404028352916020019161114d565b820191906000526020600020905b81548152906001019060200180831161113057829003601f168201915b505050505086611e17565b600061118e8661116787611eb9565b8460405160200161117a93929190613985565b604051602081830303815290604052611eb9565b90506000816040516020016111a39190613a2e565b60405160208183030381529060405290506111d56040518060600160405280603981526020016141d36039913961201c565b6112146040518060400160405280600e81526020017f46696e616c20746f6b656e55524900000000000000000000000000000000000081525082611362565b61123560405180606001604052806039815260200161423d6039913961201c565b61123f33866120b5565b61124985826120d3565b33600b8b8b60405161125c929190613377565b908152602001604051809103902060006101000a81548173ffffffffffffffffffffffffffffffffffffffff021916908373ffffffffffffffffffffffffffffffffffffffff1602179055506112b26007612140565b50505050505050505050565b60008061130e84848080601f016020809104026020016040519081016040528093929190818152602001838380828437600081840152601f19601f82011690508083019250505050505050611b94565b90506000811161131d57600080fd5b60038103611336576706f05b59d3b2000091505061135c565b6004810361134f57670429d069189e000091505061135c565b67016345785d8a00009150505b92915050565b6113fa8282604051602401611378929190613a50565b6040516020818303038152906040527f4b5c4277000000000000000000000000000000000000000000000000000000007bffffffffffffffffffffffffffffffffffffffffffffffffffffffff19166020820180517bffffffffffffffffffffffffffffffffffffffffffffffffffffffff8381831617835250505050612156565b5050565b60007f01ffc9a7000000000000000000000000000000000000000000000000000000007bffffffffffffffffffffffffffffffffffffffffffffffffffffffff1916827bffffffffffffffffffffffffffffffffffffffffffffffffffffffff1916149050919050565b6114718161217f565b6114b0576040517f08c379a00000000000000000000000000000000000000000000000000000000081526004016114a790613295565b60405180910390fd5b50565b600033905090565b816004600083815260200190815260200160002060006101000a81548173ffffffffffffffffffffffffffffffffffffffff021916908373ffffffffffffffffffffffffffffffffffffffff160217905550808273ffffffffffffffffffffffffffffffffffffffff1661152e836109f7565b73ffffffffffffffffffffffffffffffffffffffff167f8c5be1e5ebec7d5bd14f71427d1e84f3dd0314c0f7b2291e5b200ac8c7c3b92560405160405180910390a45050565b600080611580836109f7565b90508073ffffffffffffffffffffffffffffffffffffffff168473ffffffffffffffffffffffffffffffffffffffff1614806115c257506115c18185610e49565b5b8061160057508373ffffffffffffffffffffffffffffffffffffffff166115e88461068d565b73ffffffffffffffffffffffffffffffffffffffff16145b91505092915050565b8273ffffffffffffffffffffffffffffffffffffffff16611629826109f7565b73ffffffffffffffffffffffffffffffffffffffff161461167f576040517f08c379a000000000000000000000000000000000000000000000000000000000815260040161167690613af9565b60405180910390fd5b600073ffffffffffffffffffffffffffffffffffffffff168273ffffffffffffffffffffffffffffffffffffffff16036116ee576040517f08c379a00000000000000000000000000000000000000000000000000000000081526004016116e590613b8b565b60405180910390fd5b6116fb83838360016121c0565b8273ffffffffffffffffffffffffffffffffffffffff1661171b826109f7565b73ffffffffffffffffffffffffffffffffffffffff1614611771576040517f08c379a000000000000000000000000000000000000000000000000000000000815260040161176890613af9565b60405180910390fd5b6004600082815260200190815260200160002060006101000a81549073ffffffffffffffffffffffffffffffffffffffff02191690556001600360008573ffffffffffffffffffffffffffffffffffffffff1673ffffffffffffffffffffffffffffffffffffffff168152602001908152602001600020600082825403925050819055506001600360008473ffffffffffffffffffffffffffffffffffffffff1673ffffffffffffffffffffffffffffffffffffffff16815260200190815260200160002060008282540192505081905550816002600083815260200190815260200160002060006101000a81548173ffffffffffffffffffffffffffffffffffffffff021916908373ffffffffffffffffffffffffffffffffffffffff160217905550808273ffffffffffffffffffffffffffffffffffffffff168473ffffffffffffffffffffffffffffffffffffffff167fddf252ad1be2c89b69c2b068fc378daa952ba7f163c4a11628f55a4df523b3ef60405160405180910390a46118fd83838360016122e6565b505050565b60006002600083815260200190815260200160002060009054906101000a900473ffffffffffffffffffffffffffffffffffffffff169050919050565b8173ffffffffffffffffffffffffffffffffffffffff168373ffffffffffffffffffffffffffffffffffffffff16036119ad576040517f08c379a00000000000000000000000000000000000000000000000000000000081526004016119a490613bf7565b60405180910390fd5b80600560008573ffffffffffffffffffffffffffffffffffffffff1673ffffffffffffffffffffffffffffffffffffffff16815260200190815260200160002060008473ffffffffffffffffffffffffffffffffffffffff1673ffffffffffffffffffffffffffffffffffffffff16815260200190815260200160002060006101000a81548160ff0219169083151502179055508173ffffffffffffffffffffffffffffffffffffffff168373ffffffffffffffffffffffffffffffffffffffff167f17307eab39ab6107e8899845ad3d59bd9653f200f220920489ca2b5937696c3183604051611a9e9190612915565b60405180910390a3505050565b611ab6848484611609565b611ac2848484846122ec565b611b01576040517f08c379a0000000000000000000000000000000000000000000000000000000008152600401611af890613c89565b60405180910390fd5b50505050565b606060405180602001604052806000815250905090565b6060611b2982611468565b6000611b33611b07565b90506000815111611b535760405180602001604052806000815250611b7e565b80611b5d84611d49565b604051602001611b6e929190613648565b6040516020818303038152906040525b915050919050565b600081600001549050919050565b60008060008084519050600092505b80821015611d3e576000858381518110611bc057611bbf613ca9565b5b602001015160f81c60f81b9050608060f81b817effffffffffffffffffffffffffffffffffffffffffffffffffffffffffffff19161015611c0f57600183611c089190613d07565b9250611d2a565b60e060f81b817effffffffffffffffffffffffffffffffffffffffffffffffffffffffffffff19161015611c5157600283611c4a9190613d07565b9250611d29565b60f060f81b817effffffffffffffffffffffffffffffffffffffffffffffffffffffffffffff19161015611c9357600383611c8c9190613d07565b9250611d28565b60f8801b817effffffffffffffffffffffffffffffffffffffffffffffffffffffffffffff19161015611cd457600483611ccd9190613d07565b9250611d27565b60fc60f81b817effffffffffffffffffffffffffffffffffffffffffffffffffffffffffffff19161015611d1657600583611d0f9190613d07565b9250611d26565b600683611d239190613d07565b92505b5b5b5b5b508280611d3690613d3b565b935050611ba3565b829350505050919050565b606060006001611d5884612473565b01905060008167ffffffffffffffff811115611d7757611d76612b6a565b5b6040519080825280601f01601f191660200182016040528015611da95781602001600182028036833780820191505090505b509050600082602001820190505b600115611e0c578080600190039150507f3031323334353637383961626364656600000000000000000000000000000000600a86061a8153600a8581611e0057611dff613d83565b5b04945060008503611db7575b819350505050919050565b611eb384848484604051602401611e319493929190613db2565b6040516020818303038152906040527f8eafb02b000000000000000000000000000000000000000000000000000000007bffffffffffffffffffffffffffffffffffffffffffffffffffffffff19166020820180517bffffffffffffffffffffffffffffffffffffffffffffffffffffffff8381831617835250505050612156565b50505050565b60606000825103611edb57604051806020016040528060008152509050612017565b60006040518060600160405280604081526020016142766040913990506000600360028551611f0a9190613d07565b611f149190613e0c565b6004611f209190613e3d565b67ffffffffffffffff811115611f3957611f38612b6a565b5b6040519080825280601f01601f191660200182016040528015611f6b5781602001600182028036833780820191505090505b509050600182016020820185865187015b80821015611fd7576003820191508151603f8160121c168501518453600184019350603f81600c1c168501518453600184019350603f8160061c168501518453600184019350603f8116850151845360018401935050611f7c565b5050600386510660018114611ff357600281146120065761200e565b603d6001830353603d600283035361200e565b603d60018303535b50505080925050505b919050565b6120b28160405160240161203091906129c0565b6040516020818303038152906040527f41304fac000000000000000000000000000000000000000000000000000000007bffffffffffffffffffffffffffffffffffffffffffffffffffffffff19166020820180517bffffffffffffffffffffffffffffffffffffffffffffffffffffffff8381831617835250505050612156565b50565b6120cf8282604051806020016040528060008152506125c6565b5050565b6120dc8261217f565b61211b576040517f08c379a000000000000000000000000000000000000000000000000000000000815260040161211290613ef1565b60405180910390fd5b8060066000848152602001908152602001600020908161213b9190613f11565b505050565b6001816000016000828254019250508190555050565b60008151905060006a636f6e736f6c652e6c6f679050602083016000808483855afa5050505050565b60008073ffffffffffffffffffffffffffffffffffffffff166121a183611902565b73ffffffffffffffffffffffffffffffffffffffff1614159050919050565b60018111156122e057600073ffffffffffffffffffffffffffffffffffffffff168473ffffffffffffffffffffffffffffffffffffffff16146122545780600360008673ffffffffffffffffffffffffffffffffffffffff1673ffffffffffffffffffffffffffffffffffffffff168152602001908152602001600020600082825461224c9190613fe3565b925050819055505b600073ffffffffffffffffffffffffffffffffffffffff168373ffffffffffffffffffffffffffffffffffffffff16146122df5780600360008573ffffffffffffffffffffffffffffffffffffffff1673ffffffffffffffffffffffffffffffffffffffff16815260200190815260200160002060008282546122d79190613d07565b925050819055505b5b50505050565b50505050565b600061230d8473ffffffffffffffffffffffffffffffffffffffff16612621565b15612466578373ffffffffffffffffffffffffffffffffffffffff1663150b7a026123366114b3565b8786866040518563ffffffff1660e01b8152600401612358949392919061406c565b6020604051808303816000875af192505050801561239457506040513d601f19601f8201168201806040525081019061239191906140cd565b60015b612416573d80600081146123c4576040519150601f19603f3d011682016040523d82523d6000602084013e6123c9565b606091505b50600081510361240e576040517f08c379a000000000000000000000000000000000000000000000000000000000815260040161240590613c89565b60405180910390fd5b805181602001fd5b63150b7a0260e01b7bffffffffffffffffffffffffffffffffffffffffffffffffffffffff1916817bffffffffffffffffffffffffffffffffffffffffffffffffffffffff19161491505061246b565b600190505b949350505050565b600080600090507a184f03e93ff9f4daa797ed6e38ed64bf6a1f01000000000000000083106124d1577a184f03e93ff9f4daa797ed6e38ed64bf6a1f01000000000000000083816124c7576124c6613d83565b5b0492506040810190505b6d04ee2d6d415b85acef8100000000831061250e576d04ee2d6d415b85acef8100000000838161250457612503613d83565b5b0492506020810190505b662386f26fc10000831061253d57662386f26fc10000838161253357612532613d83565b5b0492506010810190505b6305f5e1008310612566576305f5e100838161255c5761255b613d83565b5b0492506008810190505b612710831061258b57612710838161258157612580613d83565b5b0492506004810190505b606483106125ae57606483816125a4576125a3613d83565b5b0492506002810190505b600a83106125bd576001810190505b80915050919050565b6125d08383612644565b6125dd60008484846122ec565b61261c576040517f08c379a000000000000000000000000000000000000000000000000000000000815260040161261390613c89565b60405180910390fd5b505050565b6000808273ffffffffffffffffffffffffffffffffffffffff163b119050919050565b600073ffffffffffffffffffffffffffffffffffffffff168273ffffffffffffffffffffffffffffffffffffffff16036126b3576040517f08c379a00000000000000000000000000000000000000000000000000000000081526004016126aa90614146565b60405180910390fd5b6126bc8161217f565b156126fc576040517f08c379a00000000000000000000000000000000000000000000000000000000081526004016126f3906141b2565b60405180910390fd5b61270a6000838360016121c0565b6127138161217f565b15612753576040517f08c379a000000000000000000000000000000000000000000000000000000000815260040161274a906141b2565b60405180910390fd5b6001600360008473ffffffffffffffffffffffffffffffffffffffff1673ffffffffffffffffffffffffffffffffffffffff16815260200190815260200160002060008282540192505081905550816002600083815260200190815260200160002060006101000a81548173ffffffffffffffffffffffffffffffffffffffff021916908373ffffffffffffffffffffffffffffffffffffffff160217905550808273ffffffffffffffffffffffffffffffffffffffff16600073ffffffffffffffffffffffffffffffffffffffff167fddf252ad1be2c89b69c2b068fc378daa952ba7f163c4a11628f55a4df523b3ef60405160405180910390a461285d6000838360016122e6565b5050565b6000604051905090565b600080fd5b600080fd5b60007fffffffff0000000000000000000000000000000000000000000000000000000082169050919050565b6128aa81612875565b81146128b557600080fd5b50565b6000813590506128c7816128a1565b92915050565b6000602082840312156128e3576128e261286b565b5b60006128f1848285016128b8565b91505092915050565b60008115159050919050565b61290f816128fa565b82525050565b600060208201905061292a6000830184612906565b92915050565b600081519050919050565b600082825260208201905092915050565b60005b8381101561296a57808201518184015260208101905061294f565b60008484015250505050565b6000601f19601f8301169050919050565b600061299282612930565b61299c818561293b565b93506129ac81856020860161294c565b6129b581612976565b840191505092915050565b600060208201905081810360008301526129da8184612987565b905092915050565b6000819050919050565b6129f5816129e2565b8114612a0057600080fd5b50565b600081359050612a12816129ec565b92915050565b600060208284031215612a2e57612a2d61286b565b5b6000612a3c84828501612a03565b91505092915050565b600073ffffffffffffffffffffffffffffffffffffffff82169050919050565b6000612a7082612a45565b9050919050565b612a8081612a65565b82525050565b6000602082019050612a9b6000830184612a77565b92915050565b612aaa81612a65565b8114612ab557600080fd5b50565b600081359050612ac781612aa1565b92915050565b60008060408385031215612ae457612ae361286b565b5b6000612af285828601612ab8565b9250506020612b0385828601612a03565b9150509250929050565b600080600060608486031215612b2657612b2561286b565b5b6000612b3486828701612ab8565b9350506020612b4586828701612ab8565b9250506040612b5686828701612a03565b9150509250925092565b600080fd5b600080fd5b7f4e487b7100000000000000000000000000000000000000000000000000000000600052604160045260246000fd5b612ba282612976565b810181811067ffffffffffffffff82111715612bc157612bc0612b6a565b5b80604052505050565b6000612bd4612861565b9050612be08282612b99565b919050565b600067ffffffffffffffff821115612c0057612bff612b6a565b5b612c0982612976565b9050602081019050919050565b82818337600083830152505050565b6000612c38612c3384612be5565b612bca565b905082815260208101848484011115612c5457612c53612b65565b5b612c5f848285612c16565b509392505050565b600082601f830112612c7c57612c7b612b60565b5b8135612c8c848260208601612c25565b91505092915050565b600060208284031215612cab57612caa61286b565b5b600082013567ffffffffffffffff811115612cc957612cc8612870565b5b612cd584828501612c67565b91505092915050565b600060208284031215612cf457612cf361286b565b5b6000612d0284828501612ab8565b91505092915050565b612d14816129e2565b82525050565b6000602082019050612d2f6000830184612d0b565b92915050565b612d3e816128fa565b8114612d4957600080fd5b50565b600081359050612d5b81612d35565b92915050565b60008060408385031215612d7857612d7761286b565b5b6000612d8685828601612ab8565b9250506020612d9785828601612d4c565b9150509250929050565b600067ffffffffffffffff821115612dbc57612dbb612b6a565b5b612dc582612976565b9050602081019050919050565b6000612de5612de084612da1565b612bca565b905082815260208101848484011115612e0157612e00612b65565b5b612e0c848285612c16565b509392505050565b600082601f830112612e2957612e28612b60565b5b8135612e39848260208601612dd2565b91505092915050565b60008060008060808587031215612e5c57612e5b61286b565b5b6000612e6a87828801612ab8565b9450506020612e7b87828801612ab8565b9350506040612e8c87828801612a03565b925050606085013567ffffffffffffffff811115612ead57612eac612870565b5b612eb987828801612e14565b91505092959194509250565b600080fd5b600080fd5b60008083601f840112612ee557612ee4612b60565b5b8235905067ffffffffffffffff811115612f0257612f01612ec5565b5b602083019150836001820283011115612f1e57612f1d612eca565b5b9250929050565b60008060208385031215612f3c57612f3b61286b565b5b600083013567ffffffffffffffff811115612f5a57612f59612870565b5b612f6685828601612ecf565b92509250509250929050565b60008060008060408587031215612f8c57612f8b61286b565b5b600085013567ffffffffffffffff811115612faa57612fa9612870565b5b612fb687828801612ecf565b9450945050602085013567ffffffffffffffff811115612fd957612fd8612870565b5b612fe587828801612ecf565b925092505092959194509250565b6000806040838503121561300a5761300961286b565b5b600061301885828601612ab8565b925050602061302985828601612ab8565b9150509250929050565b7f4e487b7100000000000000000000000000000000000000000000000000000000600052602260045260246000fd5b6000600282049050600182168061307a57607f821691505b60208210810361308d5761308c613033565b5b50919050565b7f4552433732313a20617070726f76616c20746f2063757272656e74206f776e6560008201527f7200000000000000000000000000000000000000000000000000000000000000602082015250565b60006130ef60218361293b565b91506130fa82613093565b604082019050919050565b6000602082019050818103600083015261311e816130e2565b9050919050565b7f4552433732313a20617070726f76652063616c6c6572206973206e6f7420746f60008201527f6b656e206f776e6572206f7220617070726f76656420666f7220616c6c000000602082015250565b6000613181603d8361293b565b915061318c82613125565b604082019050919050565b600060208201905081810360008301526131b081613174565b9050919050565b7f4552433732313a2063616c6c6572206973206e6f7420746f6b656e206f776e6560008201527f72206f7220617070726f76656400000000000000000000000000000000000000602082015250565b6000613213602d8361293b565b915061321e826131b7565b604082019050919050565b6000602082019050818103600083015261324281613206565b9050919050565b7f4552433732313a20696e76616c696420746f6b656e2049440000000000000000600082015250565b600061327f60188361293b565b915061328a82613249565b602082019050919050565b600060208201905081810360008301526132ae81613272565b9050919050565b7f4552433732313a2061646472657373207a65726f206973206e6f74206120766160008201527f6c6964206f776e65720000000000000000000000000000000000000000000000602082015250565b600061331160298361293b565b915061331c826132b5565b604082019050919050565b6000602082019050818103600083015261334081613304565b9050919050565b600081905092915050565b600061335e8385613347565b935061336b838584612c16565b82840190509392505050565b6000613384828486613352565b91508190509392505050565b600082905092915050565b60008190508160005260206000209050919050565b60006020601f8301049050919050565b600082821b905092915050565b6000600883026133fd7fffffffffffffffffffffffffffffffffffffffffffffffffffffffffffffffff826133c0565b61340786836133c0565b95508019841693508086168417925050509392505050565b6000819050919050565b600061344461343f61343a846129e2565b61341f565b6129e2565b9050919050565b6000819050919050565b61345e83613429565b61347261346a8261344b565b8484546133cd565b825550505050565b600090565b61348761347a565b613492818484613455565b505050565b5b818110156134b6576134ab60008261347f565b600181019050613498565b5050565b601f8211156134fb576134cc8161339b565b6134d5846133b0565b810160208510156134e4578190505b6134f86134f0856133b0565b830182613497565b50505b505050565b600082821c905092915050565b600061351e60001984600802613500565b1980831691505092915050565b6000613537838361350d565b9150826002028217905092915050565b6135518383613390565b67ffffffffffffffff81111561356a57613569612b6a565b5b6135748254613062565b61357f8282856134ba565b6000601f8311600181146135ae576000841561359c578287013590505b6135a6858261352b565b86555061360e565b601f1984166135bc8661339b565b60005b828110156135e4578489013582556001820191506020850194506020810190506135bf565b8683101561360157848901356135fd601f89168261350d565b8355505b6001600288020188555050505b50505050505050565b600061362282612930565b61362c8185613347565b935061363c81856020860161294c565b80840191505092915050565b60006136548285613617565b91506136608284613617565b91508190509392505050565b7f4e6f7420656e6f756768204d6174696320706169640000000000000000000000600082015250565b60006136a260158361293b565b91506136ad8261366c565b602082019050919050565b600060208201905081810360008301526136d181613695565b9050919050565b7f2e00000000000000000000000000000000000000000000000000000000000000600082015250565b600061370e600183613347565b9150613719826136d8565b600182019050919050565b6000815461373181613062565b61373b8186613347565b94506001821660008114613756576001811461376b5761379e565b60ff198316865281151582028601935061379e565b6137748561339b565b60005b8381101561379657815481890152600182019150602081019050613777565b838801955050505b50505092915050565b60006137b4828587613352565b91506137bf82613701565b91506137cb8284613724565b9150819050949350505050565b60006137e48286613724565b91506137f08285613617565b91506137fc8284613724565b9150819050949350505050565b7f7b226e616d65223a202200000000000000000000000000000000000000000000600082015250565b600061383f600a83613347565b915061384a82613809565b600a82019050919050565b7f222c20226465736372697074696f6e223a20224120646f6d61696e206f6e207460008201527f68652047756a61726174206e616d652073657276696365222c2022696d61676560208201527f223a2022646174613a696d6167652f7376672b786d6c3b6261736536342c0000604082015250565b60006138d7605e83613347565b91506138e282613855565b605e82019050919050565b7f222c226c656e677468223a220000000000000000000000000000000000000000600082015250565b6000613923600c83613347565b915061392e826138ed565b600c82019050919050565b7f227d000000000000000000000000000000000000000000000000000000000000600082015250565b600061396f600283613347565b915061397a82613939565b600282019050919050565b600061399082613832565b915061399c8286613617565b91506139a7826138ca565b91506139b38285613617565b91506139be82613916565b91506139ca8284613617565b91506139d582613962565b9150819050949350505050565b7f646174613a6170706c69636174696f6e2f6a736f6e3b6261736536342c000000600082015250565b6000613a18601d83613347565b9150613a23826139e2565b601d82019050919050565b6000613a3982613a0b565b9150613a458284613617565b915081905092915050565b60006040820190508181036000830152613a6a8185612987565b90508181036020830152613a7e8184612987565b90509392505050565b7f4552433732313a207472616e736665722066726f6d20696e636f72726563742060008201527f6f776e6572000000000000000000000000000000000000000000000000000000602082015250565b6000613ae360258361293b565b9150613aee82613a87565b604082019050919050565b60006020820190508181036000830152613b1281613ad6565b9050919050565b7f4552433732313a207472616e7366657220746f20746865207a65726f2061646460008201527f7265737300000000000000000000000000000000000000000000000000000000602082015250565b6000613b7560248361293b565b9150613b8082613b19565b604082019050919050565b60006020820190508181036000830152613ba481613b68565b9050919050565b7f4552433732313a20617070726f766520746f2063616c6c657200000000000000600082015250565b6000613be160198361293b565b9150613bec82613bab565b602082019050919050565b60006020820190508181036000830152613c1081613bd4565b9050919050565b7f4552433732313a207472616e7366657220746f206e6f6e20455243373231526560008201527f63656976657220696d706c656d656e7465720000000000000000000000000000602082015250565b6000613c7360328361293b565b9150613c7e82613c17565b604082019050919050565b60006020820190508181036000830152613ca281613c66565b9050919050565b7f4e487b7100000000000000000000000000000000000000000000000000000000600052603260045260246000fd5b7f4e487b7100000000000000000000000000000000000000000000000000000000600052601160045260246000fd5b6000613d12826129e2565b9150613d1d836129e2565b9250828201905080821115613d3557613d34613cd8565b5b92915050565b6000613d46826129e2565b91507fffffffffffffffffffffffffffffffffffffffffffffffffffffffffffffffff8203613d7857613d77613cd8565b5b600182019050919050565b7f4e487b7100000000000000000000000000000000000000000000000000000000600052601260045260246000fd5b60006080820190508181036000830152613dcc8187612987565b90508181036020830152613de08186612987565b90508181036040830152613df48185612987565b9050613e036060830184612d0b565b95945050505050565b6000613e17826129e2565b9150613e22836129e2565b925082613e3257613e31613d83565b5b828204905092915050565b6000613e48826129e2565b9150613e53836129e2565b9250828202613e61816129e2565b91508282048414831517613e7857613e77613cd8565b5b5092915050565b7f45524337323155524953746f726167653a2055524920736574206f66206e6f6e60008201527f6578697374656e7420746f6b656e000000000000000000000000000000000000602082015250565b6000613edb602e8361293b565b9150613ee682613e7f565b604082019050919050565b60006020820190508181036000830152613f0a81613ece565b9050919050565b613f1a82612930565b67ffffffffffffffff811115613f3357613f32612b6a565b5b613f3d8254613062565b613f488282856134ba565b600060209050601f831160018114613f7b5760008415613f69578287015190505b613f73858261352b565b865550613fdb565b601f198416613f898661339b565b60005b82811015613fb157848901518255600182019150602085019450602081019050613f8c565b86831015613fce5784890151613fca601f89168261350d565b8355505b6001600288020188555050505b505050505050565b6000613fee826129e2565b9150613ff9836129e2565b925082820390508181111561401157614010613cd8565b5b92915050565b600081519050919050565b600082825260208201905092915050565b600061403e82614017565b6140488185614022565b935061405881856020860161294c565b61406181612976565b840191505092915050565b60006080820190506140816000830187612a77565b61408e6020830186612a77565b61409b6040830185612d0b565b81810360608301526140ad8184614033565b905095945050505050565b6000815190506140c7816128a1565b92915050565b6000602082840312156140e3576140e261286b565b5b60006140f1848285016140b8565b91505092915050565b7f4552433732313a206d696e7420746f20746865207a65726f2061646472657373600082015250565b600061413060208361293b565b915061413b826140fa565b602082019050919050565b6000602082019050818103600083015261415f81614123565b9050919050565b7f4552433732313a20746f6b656e20616c7265616479206d696e74656400000000600082015250565b600061419c601c8361293b565b91506141a782614166565b602082019050919050565b600060208201905081810360008301526141cb8161418f565b905091905056fe0a2d2d2d2d2d2d2d2d2d2d2d2d2d2d2d2d2d2d2d2d2d2d2d2d2d2d2d2d2d2d2d2d2d2d2d2d2d2d2d2d2d2d2d2d2d2d2d2d2d2d2d2d2d2d2d2d5265676973746572696e672025732e2573206f6e2074686520636f6e7472616374207769746820746f6b656e49442025642d2d2d2d2d2d2d2d2d2d2d2d2d2d2d2d2d2d2d2d2d2d2d2d2d2d2d2d2d2d2d2d2d2d2d2d2d2d2d2d2d2d2d2d2d2d2d2d2d2d2d2d2d2d2d2d0a4142434445464748494a4b4c4d4e4f505152535455565758595a6162636465666768696a6b6c6d6e6f707172737475767778797a303132333435363738392b2fa2646970667358221220bffc25fc5a432f8eb955ec4b6ea7fe8cc8945654a31a03c97e760a851ae0aa9764736f6c634300081100333c73766720786d6c6e733d22687474703a2f2f7777772e77332e6f72672f323030302f737667222077696474683d2232373022206865696768743d22323730222066696c6c3d226e6f6e65223e3c706174682066696c6c3d2275726c282342292220643d224d302030683237307632373048307a222f3e3c646566733e3c66696c7465722069643d22412220636f6c6f722d696e746572706f6c6174696f6e2d66696c746572733d2273524742222066696c746572556e6974733d227573657253706163654f6e55736522206865696768743d22323730222077696474683d22323730223e3c666544726f70536861646f772064783d2230222064793d22312220737464446576696174696f6e3d22322220666c6f6f642d6f7061636974793d222e323235222077696474683d223230302522206865696768743d2232303025222f3e3c2f66696c7465723e3c2f646566733e3c7061746820643d224d37322e3836332034322e393439632d2e3636382d2e3338372d312e3432362d2e35392d322e3139372d2e3539732d312e3532392e3230342d322e3139372e35396c2d31302e30383120362e3033322d362e383520332e3933342d31302e30383120362e303332632d2e3636382e3338372d312e3432362e35392d322e3139372e3539732d312e3532392d2e3230342d322e3139372d2e35396c2d382e3031332d342e37323161342e353220342e35322030203020312d312e3538392d312e363136632d2e3338342d2e3636352d2e3539342d312e3431382d2e3630382d322e313837762d392e3331632d2e3031332d2e3737352e3138352d312e3533382e3537322d322e32303861342e323520342e323520302030203120312e3632352d312e3539356c372e3838342d342e3539632e3636382d2e33383720312e3432362d2e353920322e3139372d2e353973312e3532392e32303420322e3139372e35396c372e38383420342e353961342e353220342e353220302030203120312e35383920312e363136632e3338342e3636352e35393420312e3431382e36303820322e31383776362e3033326c362e38352d342e303635762d362e303332632e3031332d2e3737352d2e3138352d312e3533382d2e3537322d322e32303861342e323520342e32352030203020302d312e3632352d312e3539354c34312e3435362032342e3539632d2e3636382d2e3338372d312e3432362d2e35392d322e3139372d2e3539732d312e3532392e3230342d322e3139372e35396c2d31342e38363420382e36353561342e323520342e32352030203020302d312e36323520312e353935632d2e3338372e36372d2e35383520312e3433342d2e35373220322e3230387631372e343431632d2e3031332e3737352e31383520312e3533382e35373220322e32303861342e323520342e323520302030203020312e36323520312e3539356c31342e38363420382e363535632e3636382e33383720312e3432362e353920322e3139372e353973312e3532392d2e32303420322e3139372d2e35396c31302e3038312d352e39303120362e38352d342e3036352031302e3038312d352e393031632e3636382d2e33383720312e3432362d2e353920322e3139372d2e353973312e3532392e32303420322e3139372e35396c372e38383420342e353961342e353220342e353220302030203120312e35383920312e363136632e3338342e3636352e35393420312e3431382e36303820322e31383776392e333131632e3031332e3737352d2e31383520312e3533382d2e35373220322e32303861342e323520342e32352030203020312d312e36323520312e3539356c2d372e38383420342e373231632d2e3636382e3338372d312e3432362e35392d322e3139372e3539732d312e3532392d2e3230342d322e3139372d2e35396c2d372e3838342d342e353961342e353220342e35322030203020312d312e3538392d312e363136632d2e3338352d2e3636352d2e3539342d312e3431382d2e3630382d322e313837762d362e3033326c2d362e383520342e30363576362e303332632d2e3031332e3737352e31383520312e3533382e35373220322e32303861342e323520342e323520302030203020312e36323520312e3539356c31342e38363420382e363535632e3636382e33383720312e3432362e353920322e3139372e353973312e3532392d2e32303420322e3139372d2e35396c31342e3836342d382e363535632e3635372d2e33393420312e3230342d2e393520312e3538392d312e363136732e3539342d312e3431382e3630392d322e3138375635352e353338632e3031332d2e3737352d2e3138352d312e3533382d2e3537322d322e32303861342e323520342e32352030203020302d312e3632352d312e3539356c2d31342e3939332d382e3738367a222066696c6c3d2223666666222f3e3c646566733e3c6c696e6561724772616469656e742069643d2242222078313d2230222079313d2230222078323d22323730222079323d2232373022206772616469656e74556e6974733d227573657253706163654f6e557365223e3c73746f702073746f702d636f6c6f723d2223636235656565222f3e3c73746f70206f66667365743d2231222073746f702d636f6c6f723d2223306364376534222073746f702d6f7061636974793d222e3939222f3e3c2f6c696e6561724772616469656e743e3c2f646566733e3c7465787420783d2233322e352220793d223233312220666f6e742d73697a653d223237222066696c6c3d2223666666222066696c7465723d2275726c282341292220666f6e742d66616d696c793d22506c7573204a616b617274612053616e732c44656a6156752053616e732c4e6f746f20436f6c6f7220456d6f6a692c4170706c6520436f6c6f7220456d6f6a692c73616e732d73657269662220666f6e742d7765696768743d22626f6c64223e",
  "linkReferences": {},
  "deployedLinkReferences": {}
}