{
  "_format": "hh-sol-artifact-1",
  "contractName": "Domains",
  "sourceName": "contracts/domain.sol",
  "abi": [
    {
      "inputs": [
        {
          "internalType": "string",
          "name": "_tld",
          "type": "string"
        }
      ],
      "stateMutability": "payable",
      "type": "constructor"
    },
    {
      "inputs": [],
      "name": "AlreadyRegistered",
      "type": "error"
    },
    {
      "inputs": [
        {
          "internalType": "string",
          "name": "name",
          "type": "string"
        }
      ],
      "name": "InvalidName",
      "type": "error"
    },
    {
      "inputs": [],
      "name": "Unauthorized",
      "type": "error"
    },
    {
      "anonymous": false,
      "inputs": [
        {
          "indexed": true,
          "internalType": "address",
          "name": "owner",
          "type": "address"
        },
        {
          "indexed": true,
          "internalType": "address",
          "name": "approved",
          "type": "address"
        },
        {
          "indexed": true,
          "internalType": "uint256",
          "name": "tokenId",
          "type": "uint256"
        }
      ],
      "name": "Approval",
      "type": "event"
    },
    {
      "anonymous": false,
      "inputs": [
        {
          "indexed": true,
          "internalType": "address",
          "name": "owner",
          "type": "address"
        },
        {
          "indexed": true,
          "internalType": "address",
          "name": "operator",
          "type": "address"
        },
        {
          "indexed": false,
          "internalType": "bool",
          "name": "approved",
          "type": "bool"
        }
      ],
      "name": "ApprovalForAll",
      "type": "event"
    },
    {
      "anonymous": false,
      "inputs": [
        {
          "indexed": true,
          "internalType": "address",
          "name": "from",
          "type": "address"
        },
        {
          "indexed": true,
          "internalType": "address",
          "name": "to",
          "type": "address"
        },
        {
          "indexed": true,
          "internalType": "uint256",
          "name": "tokenId",
          "type": "uint256"
        }
      ],
      "name": "Transfer",
      "type": "event"
    },
    {
      "inputs": [
        {
          "internalType": "address",
          "name": "to",
          "type": "address"
        },
        {
          "internalType": "uint256",
          "name": "tokenId",
          "type": "uint256"
        }
      ],
      "name": "approve",
      "outputs": [],
      "stateMutability": "nonpayable",
      "type": "function"
    },
    {
      "inputs": [
        {
          "internalType": "address",
          "name": "owner",
          "type": "address"
        }
      ],
      "name": "balanceOf",
      "outputs": [
        {
          "internalType": "uint256",
          "name": "",
          "type": "uint256"
        }
      ],
      "stateMutability": "view",
      "type": "function"
    },
    {
      "inputs": [
        {
          "internalType": "string",
          "name": "",
          "type": "string"
        }
      ],
      "name": "domains",
      "outputs": [
        {
          "internalType": "address",
          "name": "",
          "type": "address"
        }
      ],
      "stateMutability": "view",
      "type": "function"
    },
    {
      "inputs": [
        {
          "internalType": "string",
          "name": "name",
          "type": "string"
        }
      ],
      "name": "getAddress",
      "outputs": [
        {
          "internalType": "address",
          "name": "",
          "type": "address"
        }
      ],
      "stateMutability": "view",
      "type": "function"
    },
    {
      "inputs": [],
      "name": "getAllNames",
      "outputs": [
        {
          "internalType": "string[]",
          "name": "",
          "type": "string[]"
        }
      ],
      "stateMutability": "view",
      "type": "function"
    },
    {
      "inputs": [
        {
          "internalType": "uint256",
          "name": "tokenId",
          "type": "uint256"
        }
      ],
      "name": "getApproved",
      "outputs": [
        {
          "internalType": "address",
          "name": "",
          "type": "address"
        }
      ],
      "stateMutability": "view",
      "type": "function"
    },
    {
      "inputs": [
        {
          "internalType": "address",
          "name": "owner",
          "type": "address"
        },
        {
          "internalType": "address",
          "name": "operator",
          "type": "address"
        }
      ],
      "name": "isApprovedForAll",
      "outputs": [
        {
          "internalType": "bool",
          "name": "",
          "type": "bool"
        }
      ],
      "stateMutability": "view",
      "type": "function"
    },
    {
      "inputs": [],
      "name": "isOwner",
      "outputs": [
        {
          "internalType": "bool",
          "name": "",
          "type": "bool"
        }
      ],
      "stateMutability": "view",
      "type": "function"
    },
    {
      "inputs": [],
      "name": "name",
      "outputs": [
        {
          "internalType": "string",
          "name": "",
          "type": "string"
        }
      ],
      "stateMutability": "view",
      "type": "function"
    },
    {
      "inputs": [
        {
          "internalType": "uint256",
          "name": "",
          "type": "uint256"
        }
      ],
      "name": "names",
      "outputs": [
        {
          "internalType": "string",
          "name": "",
          "type": "string"
        }
      ],
      "stateMutability": "view",
      "type": "function"
    },
    {
      "inputs": [],
      "name": "owner",
      "outputs": [
        {
          "internalType": "address payable",
          "name": "",
          "type": "address"
        }
      ],
      "stateMutability": "view",
      "type": "function"
    },
    {
      "inputs": [
        {
          "internalType": "uint256",
          "name": "tokenId",
          "type": "uint256"
        }
      ],
      "name": "ownerOf",
      "outputs": [
        {
          "internalType": "address",
          "name": "",
          "type": "address"
        }
      ],
      "stateMutability": "view",
      "type": "function"
    },
    {
      "inputs": [
        {
          "internalType": "string",
          "name": "name",
          "type": "string"
        }
      ],
      "name": "price",
      "outputs": [
        {
          "internalType": "uint256",
          "name": "",
          "type": "uint256"
        }
      ],
      "stateMutability": "pure",
      "type": "function"
    },
    {
      "inputs": [
        {
          "internalType": "string",
          "name": "",
          "type": "string"
        }
      ],
      "name": "records",
      "outputs": [
        {
          "internalType": "string",
          "name": "",
          "type": "string"
        }
      ],
      "stateMutability": "view",
      "type": "function"
    },
    {
      "inputs": [
        {
          "internalType": "string",
          "name": "name",
          "type": "string"
        }
      ],
      "name": "register",
      "outputs": [],
      "stateMutability": "payable",
      "type": "function"
    },
    {
      "inputs": [
        {
          "internalType": "address",
          "name": "from",
          "type": "address"
        },
        {
          "internalType": "address",
          "name": "to",
          "type": "address"
        },
        {
          "internalType": "uint256",
          "name": "tokenId",
          "type": "uint256"
        }
      ],
      "name": "safeTransferFrom",
      "outputs": [],
      "stateMutability": "nonpayable",
      "type": "function"
    },
    {
      "inputs": [
        {
          "internalType": "address",
          "name": "from",
          "type": "address"
        },
        {
          "internalType": "address",
          "name": "to",
          "type": "address"
        },
        {
          "internalType": "uint256",
          "name": "tokenId",
          "type": "uint256"
        },
        {
          "internalType": "bytes",
          "name": "data",
          "type": "bytes"
        }
      ],
      "name": "safeTransferFrom",
      "outputs": [],
      "stateMutability": "nonpayable",
      "type": "function"
    },
    {
      "inputs": [
        {
          "internalType": "address",
          "name": "operator",
          "type": "address"
        },
        {
          "internalType": "bool",
          "name": "approved",
          "type": "bool"
        }
      ],
      "name": "setApprovalForAll",
      "outputs": [],
      "stateMutability": "nonpayable",
      "type": "function"
    },
    {
      "inputs": [
        {
          "internalType": "string",
          "name": "name",
          "type": "string"
        },
        {
          "internalType": "string",
          "name": "record",
          "type": "string"
        }
      ],
      "name": "setRecord",
      "outputs": [],
      "stateMutability": "nonpayable",
      "type": "function"
    },
    {
      "inputs": [
        {
          "internalType": "bytes4",
          "name": "interfaceId",
          "type": "bytes4"
        }
      ],
      "name": "supportsInterface",
      "outputs": [
        {
          "internalType": "bool",
          "name": "",
          "type": "bool"
        }
      ],
      "stateMutability": "view",
      "type": "function"
    },
    {
      "inputs": [],
      "name": "symbol",
      "outputs": [
        {
          "internalType": "string",
          "name": "",
          "type": "string"
        }
      ],
      "stateMutability": "view",
      "type": "function"
    },
    {
      "inputs": [],
      "name": "tld",
      "outputs": [
        {
          "internalType": "string",
          "name": "",
          "type": "string"
        }
      ],
      "stateMutability": "view",
      "type": "function"
    },
    {
      "inputs": [
        {
          "internalType": "uint256",
          "name": "tokenId",
          "type": "uint256"
        }
      ],
      "name": "tokenURI",
      "outputs": [
        {
          "internalType": "string",
          "name": "",
          "type": "string"
        }
      ],
      "stateMutability": "view",
      "type": "function"
    },
    {
      "inputs": [
        {
          "internalType": "address",
          "name": "from",
          "type": "address"
        },
        {
          "internalType": "address",
          "name": "to",
          "type": "address"
        },
        {
          "internalType": "uint256",
          "name": "tokenId",
          "type": "uint256"
        }
      ],
      "name": "transferFrom",
      "outputs": [],
      "stateMutability": "nonpayable",
      "type": "function"
    },
    {
      "inputs": [
        {
          "internalType": "string",
          "name": "name",
          "type": "string"
        }
      ],
      "name": "valid",
      "outputs": [
        {
          "internalType": "bool",
          "name": "",
          "type": "bool"
        }
      ],
      "stateMutability": "pure",
      "type": "function"
    },
    {
      "inputs": [],
      "name": "withdraw",
      "outputs": [],
      "stateMutability": "nonpayable",
      "type": "function"
    }
  ],
  "bytecode": "0x6080604052604051806108a0016040528061086b8152602001620054dc61086b9139600a90816200003191906200051f565b506040518060400160405280600d81526020017f3c2f746578743e3c2f7376673e00000000000000000000000000000000000000815250600b90816200007891906200051f565b5060405162005d4738038062005d4783398181016040528101906200009e91906200076a565b6040518060400160405280601481526020017f47756a61726174204e616d6520536572766963650000000000000000000000008152506040518060400160405280600381526020017f474e53000000000000000000000000000000000000000000000000000000000081525081600090816200011b91906200051f565b5080600190816200012d91906200051f565b50505033600960006101000a81548173ffffffffffffffffffffffffffffffffffffffff021916908373ffffffffffffffffffffffffffffffffffffffff16021790555080600890816200018291906200051f565b50620001cf6040518060400160405280601881526020017f2573206e616d652073657276696365206465706c6f796564000000000000000081525082620001d660201b620019aa1760201c565b5062000848565b620002788282604051602401620001ef9291906200080d565b6040516020818303038152906040527f4b5c4277000000000000000000000000000000000000000000000000000000007bffffffffffffffffffffffffffffffffffffffffffffffffffffffff19166020820180517bffffffffffffffffffffffffffffffffffffffffffffffffffffffff83818316178352505050506200027c60201b60201c565b5050565b60008151905060006a636f6e736f6c652e6c6f679050602083016000808483855afa5050505050565b600081519050919050565b7f4e487b7100000000000000000000000000000000000000000000000000000000600052604160045260246000fd5b7f4e487b7100000000000000000000000000000000000000000000000000000000600052602260045260246000fd5b600060028204905060018216806200032757607f821691505b6020821081036200033d576200033c620002df565b5b50919050565b60008190508160005260206000209050919050565b60006020601f8301049050919050565b600082821b905092915050565b600060088302620003a77fffffffffffffffffffffffffffffffffffffffffffffffffffffffffffffffff8262000368565b620003b3868362000368565b95508019841693508086168417925050509392505050565b6000819050919050565b6000819050919050565b600062000400620003fa620003f484620003cb565b620003d5565b620003cb565b9050919050565b6000819050919050565b6200041c83620003df565b620004346200042b8262000407565b84845462000375565b825550505050565b600090565b6200044b6200043c565b6200045881848462000411565b505050565b5b8181101562000480576200047460008262000441565b6001810190506200045e565b5050565b601f821115620004cf57620004998162000343565b620004a48462000358565b81016020851015620004b4578190505b620004cc620004c38562000358565b8301826200045d565b50505b505050565b600082821c905092915050565b6000620004f460001984600802620004d4565b1980831691505092915050565b60006200050f8383620004e1565b9150826002028217905092915050565b6200052a82620002a5565b67ffffffffffffffff811115620005465762000545620002b0565b5b6200055282546200030e565b6200055f82828562000484565b600060209050601f83116001811462000597576000841562000582578287015190505b6200058e858262000501565b865550620005fe565b601f198416620005a78662000343565b60005b82811015620005d157848901518255600182019150602085019450602081019050620005aa565b86831015620005f15784890151620005ed601f891682620004e1565b8355505b6001600288020188555050505b505050505050565b6000604051905090565b600080fd5b600080fd5b600080fd5b600080fd5b6000601f19601f8301169050919050565b620006408262000624565b810181811067ffffffffffffffff82111715620006625762000661620002b0565b5b80604052505050565b60006200067762000606565b905062000685828262000635565b919050565b600067ffffffffffffffff821115620006a857620006a7620002b0565b5b620006b38262000624565b9050602081019050919050565b60005b83811015620006e0578082015181840152602081019050620006c3565b60008484015250505050565b600062000703620006fd846200068a565b6200066b565b9050828152602081018484840111156200072257620007216200061f565b5b6200072f848285620006c0565b509392505050565b600082601f8301126200074f576200074e6200061a565b5b815162000761848260208601620006ec565b91505092915050565b60006020828403121562000783576200078262000610565b5b600082015167ffffffffffffffff811115620007a457620007a362000615565b5b620007b28482850162000737565b91505092915050565b600082825260208201905092915050565b6000620007d982620002a5565b620007e58185620007bb565b9350620007f7818560208601620006c0565b620008028162000624565b840191505092915050565b60006040820190508181036000830152620008298185620007cc565b905081810360208301526200083f8184620007cc565b90509392505050565b614c8480620008586000396000f3fe6080604052600436106101815760003560e01c80638da5cb5b116100d1578063bf40fac11161008a578063e985e9c511610064578063e985e9c5146105cc578063f2c298be14610609578063fb825e5f14610625578063fe2c61981461065057610181565b8063bf40fac114610529578063c1880a9814610566578063c87b56dd1461058f57610181565b80638da5cb5b146104195780638f32d59b1461044457806395d89b411461046f5780639791c0971461049a578063a22cb465146104d7578063b88d4fde1461050057610181565b80632d5514321161013e5780634622ab03116101185780634622ab0314610325578063541e771d146103625780636352211e1461039f57806370a08231146103dc57610181565b80632d551432146102ba5780633ccfd60b146102e557806342842e0e146102fc57610181565b806301ffc9a71461018657806306fdde03146101c3578063081812fc146101ee578063095ea7b31461022b57806323b872dd14610254578063264492351461027d575b600080fd5b34801561019257600080fd5b506101ad60048036038101906101a89190612fb4565b61068d565b6040516101ba9190612ffc565b60405180910390f35b3480156101cf57600080fd5b506101d861076f565b6040516101e591906130a7565b60405180910390f35b3480156101fa57600080fd5b50610215600480360381019061021091906130ff565b610801565b604051610222919061316d565b60405180910390f35b34801561023757600080fd5b50610252600480360381019061024d91906131b4565b610847565b005b34801561026057600080fd5b5061027b600480360381019061027691906131f4565b61095e565b005b34801561028957600080fd5b506102a4600480360381019061029f919061337c565b6109be565b6040516102b1919061316d565b60405180910390f35b3480156102c657600080fd5b506102cf610a07565b6040516102dc91906130a7565b60405180910390f35b3480156102f157600080fd5b506102fa610a95565b005b34801561030857600080fd5b50610323600480360381019061031e91906131f4565b610b5b565b005b34801561033157600080fd5b5061034c600480360381019061034791906130ff565b610b7b565b60405161035991906130a7565b60405180910390f35b34801561036e57600080fd5b506103896004803603810190610384919061337c565b610c1b565b60405161039691906130a7565b60405180910390f35b3480156103ab57600080fd5b506103c660048036038101906103c191906130ff565b610cd1565b6040516103d3919061316d565b60405180910390f35b3480156103e857600080fd5b5061040360048036038101906103fe91906133c5565b610d57565b6040516104109190613401565b60405180910390f35b34801561042557600080fd5b5061042e610e0e565b60405161043b919061343d565b60405180910390f35b34801561045057600080fd5b50610459610e34565b6040516104669190612ffc565b60405180910390f35b34801561047b57600080fd5b50610484610e8c565b60405161049191906130a7565b60405180910390f35b3480156104a657600080fd5b506104c160048036038101906104bc91906134b8565b610f1e565b6040516104ce9190612ffc565b60405180910390f35b3480156104e357600080fd5b506104fe60048036038101906104f99190613531565b610fd2565b005b34801561050c57600080fd5b5061052760048036038101906105229190613612565b610fe8565b005b34801561053557600080fd5b50610550600480360381019061054b91906134b8565b61104a565b60405161055d919061316d565b60405180910390f35b34801561057257600080fd5b5061058d60048036038101906105889190613695565b611095565b005b34801561059b57600080fd5b506105b660048036038101906105b191906130ff565b611143565b6040516105c391906130a7565b60405180910390f35b3480156105d857600080fd5b506105f360048036038101906105ee9190613716565b611255565b6040516106009190612ffc565b60405180910390f35b610623600480360381019061061e91906134b8565b6112e9565b005b34801561063157600080fd5b5061063a611728565b6040516106479190613862565b60405180910390f35b34801561065c57600080fd5b50610677600480360381019061067291906134b8565b611906565b6040516106849190613401565b60405180910390f35b60007f80ac58cd000000000000000000000000000000000000000000000000000000007bffffffffffffffffffffffffffffffffffffffffffffffffffffffff1916827bffffffffffffffffffffffffffffffffffffffffffffffffffffffff1916148061075857507f5b5e139f000000000000000000000000000000000000000000000000000000007bffffffffffffffffffffffffffffffffffffffffffffffffffffffff1916827bffffffffffffffffffffffffffffffffffffffffffffffffffffffff1916145b80610768575061076782611a46565b5b9050919050565b60606000805461077e906138b3565b80601f01602080910402602001604051908101604052809291908181526020018280546107aa906138b3565b80156107f75780601f106107cc576101008083540402835291602001916107f7565b820191906000526020600020905b8154815290600101906020018083116107da57829003601f168201915b5050505050905090565b600061080c82611ab0565b6004600083815260200190815260200160002060009054906101000a900473ffffffffffffffffffffffffffffffffffffffff169050919050565b600061085282610cd1565b90508073ffffffffffffffffffffffffffffffffffffffff168373ffffffffffffffffffffffffffffffffffffffff16036108c2576040517f08c379a00000000000000000000000000000000000000000000000000000000081526004016108b990613956565b60405180910390fd5b8073ffffffffffffffffffffffffffffffffffffffff166108e1611afb565b73ffffffffffffffffffffffffffffffffffffffff161480610910575061090f8161090a611afb565b611255565b5b61094f576040517f08c379a0000000000000000000000000000000000000000000000000000000008152600401610946906139e8565b60405180910390fd5b6109598383611b03565b505050565b61096f610969611afb565b82611bbc565b6109ae576040517f08c379a00000000000000000000000000000000000000000000000000000000081526004016109a590613a7a565b60405180910390fd5b6109b9838383611c51565b505050565b600c818051602081018201805184825260208301602085012081835280955050505050506000915054906101000a900473ffffffffffffffffffffffffffffffffffffffff1681565b60088054610a14906138b3565b80601f0160208091040260200160405190810160405280929190818152602001828054610a40906138b3565b8015610a8d5780601f10610a6257610100808354040283529160200191610a8d565b820191906000526020600020905b815481529060010190602001808311610a7057829003601f168201915b505050505081565b610a9d610e34565b610aa657600080fd5b600047905060003373ffffffffffffffffffffffffffffffffffffffff1682604051610ad190613acb565b60006040518083038185875af1925050503d8060008114610b0e576040519150601f19603f3d011682016040523d82523d6000602084013e610b13565b606091505b5050905080610b57576040517f08c379a0000000000000000000000000000000000000000000000000000000008152600401610b4e90613b2c565b60405180910390fd5b5050565b610b7683838360405180602001604052806000815250610fe8565b505050565b600e6020528060005260406000206000915090508054610b9a906138b3565b80601f0160208091040260200160405190810160405280929190818152602001828054610bc6906138b3565b8015610c135780601f10610be857610100808354040283529160200191610c13565b820191906000526020600020905b815481529060010190602001808311610bf657829003601f168201915b505050505081565b600d818051602081018201805184825260208301602085012081835280955050505050506000915090508054610c50906138b3565b80601f0160208091040260200160405190810160405280929190818152602001828054610c7c906138b3565b8015610cc95780601f10610c9e57610100808354040283529160200191610cc9565b820191906000526020600020905b815481529060010190602001808311610cac57829003601f168201915b505050505081565b600080610cdd83611f4a565b9050600073ffffffffffffffffffffffffffffffffffffffff168173ffffffffffffffffffffffffffffffffffffffff1603610d4e576040517f08c379a0000000000000000000000000000000000000000000000000000000008152600401610d4590613b98565b60405180910390fd5b80915050919050565b60008073ffffffffffffffffffffffffffffffffffffffff168273ffffffffffffffffffffffffffffffffffffffff1603610dc7576040517f08c379a0000000000000000000000000000000000000000000000000000000008152600401610dbe90613c2a565b60405180910390fd5b600360008373ffffffffffffffffffffffffffffffffffffffff1673ffffffffffffffffffffffffffffffffffffffff168152602001908152602001600020549050919050565b600960009054906101000a900473ffffffffffffffffffffffffffffffffffffffff1681565b6000600960009054906101000a900473ffffffffffffffffffffffffffffffffffffffff1673ffffffffffffffffffffffffffffffffffffffff163373ffffffffffffffffffffffffffffffffffffffff1614905090565b606060018054610e9b906138b3565b80601f0160208091040260200160405190810160405280929190818152602001828054610ec7906138b3565b8015610f145780601f10610ee957610100808354040283529160200191610f14565b820191906000526020600020905b815481529060010190602001808311610ef757829003601f168201915b5050505050905090565b60006003610f6f84848080601f016020809104026020016040519081016040528093929190818152602001838380828437600081840152601f19601f82011690508083019250505050505050611f87565b10158015610fca5750600a610fc784848080601f016020809104026020016040519081016040528093929190818152602001838380828437600081840152601f19601f82011690508083019250505050505050611f87565b11155b905092915050565b610fe4610fdd611afb565b838361213c565b5050565b610ff9610ff3611afb565b83611bbc565b611038576040517f08c379a000000000000000000000000000000000000000000000000000000000815260040161102f90613a7a565b60405180910390fd5b611044848484846122a8565b50505050565b6000600c838360405161105e929190613c7a565b908152602001604051809103902060009054906101000a900473ffffffffffffffffffffffffffffffffffffffff16905092915050565b3373ffffffffffffffffffffffffffffffffffffffff16600c85856040516110be929190613c7a565b908152602001604051809103902060009054906101000a900473ffffffffffffffffffffffffffffffffffffffff1673ffffffffffffffffffffffffffffffffffffffff161461110d57600080fd5b8181600d8686604051611121929190613c7a565b9081526020016040518091039020918261113c929190613e4a565b5050505050565b606061114e82611ab0565b600060066000848152602001908152602001600020805461116e906138b3565b80601f016020809104026020016040519081016040528092919081815260200182805461119a906138b3565b80156111e75780601f106111bc576101008083540402835291602001916111e7565b820191906000526020600020905b8154815290600101906020018083116111ca57829003601f168201915b5050505050905060006111f8612304565b9050600081510361120d578192505050611250565b60008251111561124257808260405160200161122a929190613f4b565b60405160208183030381529060405292505050611250565b61124b8461231b565b925050505b919050565b6000600560008473ffffffffffffffffffffffffffffffffffffffff1673ffffffffffffffffffffffffffffffffffffffff16815260200190815260200160002060008373ffffffffffffffffffffffffffffffffffffffff1673ffffffffffffffffffffffffffffffffffffffff16815260200190815260200160002060009054906101000a900460ff16905092915050565b600073ffffffffffffffffffffffffffffffffffffffff16600c8383604051611313929190613c7a565b908152602001604051809103902060009054906101000a900473ffffffffffffffffffffffffffffffffffffffff1673ffffffffffffffffffffffffffffffffffffffff161461138f576040517f3a81d6fc00000000000000000000000000000000000000000000000000000000815260040160405180910390fd5b6113998282610f1e565b6113dc5781816040517f7f19f48d0000000000000000000000000000000000000000000000000000000081526004016113d3929190613f9c565b60405180910390fd5b60006113e88383611906565b90508034101561142d576040517f08c379a00000000000000000000000000000000000000000000000000000000081526004016114249061400c565b60405180910390fd5b600083836008604051602001611445939291906140fb565b60405160208183030381529060405290506000600a82600b60405160200161146f9392919061412c565b6040516020818303038152906040529050600061148c6007612383565b905060006114dd87878080601f016020809104026020016040519081016040528093929190818152602001838380828437600081840152601f19601f82011690508083019250505050505050611f87565b905060006114ea82612391565b90506115de604051806060016040528060318152602001614ba56031913989898080601f016020809104026020016040519081016040528093929190818152602001838380828437600081840152601f19601f820116905080830192505050505050506008805461155a906138b3565b80601f0160208091040260200160405190810160405280929190818152602001828054611586906138b3565b80156115d35780601f106115a8576101008083540402835291602001916115d3565b820191906000526020600020905b8154815290600101906020018083116115b657829003601f168201915b50505050508661245f565b6000611614866115ed87612501565b84604051602001611600939291906142d9565b604051602081830303815290604052612501565b90506000816040516020016116299190614382565b604051602081830303815290604052905061165b604051806060016040528060398152602001614b6c60399139612664565b61167c604051806060016040528060398152602001614bd660399139612664565b61168633866126fd565b611690858261271b565b33600c8b8b6040516116a3929190613c7a565b908152602001604051809103902060006101000a81548173ffffffffffffffffffffffffffffffffffffffff021916908373ffffffffffffffffffffffffffffffffffffffff1602179055508989600e60008881526020019081526020016000209182611711929190613e4a565b5061171c6007612788565b50505050505050505050565b60606117686040518060400160405280601f81526020017f47657474696e6720616c6c206e616d65732066726f6d20636f6e747261637400815250612664565b60006117746007612383565b67ffffffffffffffff81111561178d5761178c613251565b5b6040519080825280602002602001820160405280156117c057816020015b60608152602001906001900390816117ab5790505b50905060005b6117d06007612383565b8110156118fe57600e600082815260200190815260200160002080546117f5906138b3565b80601f0160208091040260200160405190810160405280929190818152602001828054611821906138b3565b801561186e5780601f106118435761010080835404028352916020019161186e565b820191906000526020600020905b81548152906001019060200180831161185157829003601f168201915b5050505050828281518110611886576118856143a4565b5b60200260200101819052506118eb6040518060400160405280601781526020017f4e616d6520666f7220746f6b656e202564206973202573000000000000000000815250828484815181106118de576118dd6143a4565b5b602002602001015161279e565b80806118f690614402565b9150506117c6565b508091505090565b60008061195684848080601f016020809104026020016040519081016040528093929190818152602001838380828437600081840152601f19601f82011690508083019250505050505050611f87565b90506000811161196557600080fd5b6003810361197e576706f05b59d3b200009150506119a4565b6004810361199757670429d069189e00009150506119a4565b67016345785d8a00009150505b92915050565b611a4282826040516024016119c092919061444a565b6040516020818303038152906040527f4b5c4277000000000000000000000000000000000000000000000000000000007bffffffffffffffffffffffffffffffffffffffffffffffffffffffff19166020820180517bffffffffffffffffffffffffffffffffffffffffffffffffffffffff838183161783525050505061283d565b5050565b60007f01ffc9a7000000000000000000000000000000000000000000000000000000007bffffffffffffffffffffffffffffffffffffffffffffffffffffffff1916827bffffffffffffffffffffffffffffffffffffffffffffffffffffffff1916149050919050565b611ab981612866565b611af8576040517f08c379a0000000000000000000000000000000000000000000000000000000008152600401611aef90613b98565b60405180910390fd5b50565b600033905090565b816004600083815260200190815260200160002060006101000a81548173ffffffffffffffffffffffffffffffffffffffff021916908373ffffffffffffffffffffffffffffffffffffffff160217905550808273ffffffffffffffffffffffffffffffffffffffff16611b7683610cd1565b73ffffffffffffffffffffffffffffffffffffffff167f8c5be1e5ebec7d5bd14f71427d1e84f3dd0314c0f7b2291e5b200ac8c7c3b92560405160405180910390a45050565b600080611bc883610cd1565b90508073ffffffffffffffffffffffffffffffffffffffff168473ffffffffffffffffffffffffffffffffffffffff161480611c0a5750611c098185611255565b5b80611c4857508373ffffffffffffffffffffffffffffffffffffffff16611c3084610801565b73ffffffffffffffffffffffffffffffffffffffff16145b91505092915050565b8273ffffffffffffffffffffffffffffffffffffffff16611c7182610cd1565b73ffffffffffffffffffffffffffffffffffffffff1614611cc7576040517f08c379a0000000000000000000000000000000000000000000000000000000008152600401611cbe906144f3565b60405180910390fd5b600073ffffffffffffffffffffffffffffffffffffffff168273ffffffffffffffffffffffffffffffffffffffff1603611d36576040517f08c379a0000000000000000000000000000000000000000000000000000000008152600401611d2d90614585565b60405180910390fd5b611d4383838360016128a7565b8273ffffffffffffffffffffffffffffffffffffffff16611d6382610cd1565b73ffffffffffffffffffffffffffffffffffffffff1614611db9576040517f08c379a0000000000000000000000000000000000000000000000000000000008152600401611db0906144f3565b60405180910390fd5b6004600082815260200190815260200160002060006101000a81549073ffffffffffffffffffffffffffffffffffffffff02191690556001600360008573ffffffffffffffffffffffffffffffffffffffff1673ffffffffffffffffffffffffffffffffffffffff168152602001908152602001600020600082825403925050819055506001600360008473ffffffffffffffffffffffffffffffffffffffff1673ffffffffffffffffffffffffffffffffffffffff16815260200190815260200160002060008282540192505081905550816002600083815260200190815260200160002060006101000a81548173ffffffffffffffffffffffffffffffffffffffff021916908373ffffffffffffffffffffffffffffffffffffffff160217905550808273ffffffffffffffffffffffffffffffffffffffff168473ffffffffffffffffffffffffffffffffffffffff167fddf252ad1be2c89b69c2b068fc378daa952ba7f163c4a11628f55a4df523b3ef60405160405180910390a4611f4583838360016129cd565b505050565b60006002600083815260200190815260200160002060009054906101000a900473ffffffffffffffffffffffffffffffffffffffff169050919050565b60008060008084519050600092505b80821015612131576000858381518110611fb357611fb26143a4565b5b602001015160f81c60f81b9050608060f81b817effffffffffffffffffffffffffffffffffffffffffffffffffffffffffffff1916101561200257600183611ffb91906145a5565b925061211d565b60e060f81b817effffffffffffffffffffffffffffffffffffffffffffffffffffffffffffff191610156120445760028361203d91906145a5565b925061211c565b60f060f81b817effffffffffffffffffffffffffffffffffffffffffffffffffffffffffffff191610156120865760038361207f91906145a5565b925061211b565b60f8801b817effffffffffffffffffffffffffffffffffffffffffffffffffffffffffffff191610156120c7576004836120c091906145a5565b925061211a565b60fc60f81b817effffffffffffffffffffffffffffffffffffffffffffffffffffffffffffff191610156121095760058361210291906145a5565b9250612119565b60068361211691906145a5565b92505b5b5b5b5b50828061212990614402565b935050611f96565b829350505050919050565b8173ffffffffffffffffffffffffffffffffffffffff168373ffffffffffffffffffffffffffffffffffffffff16036121aa576040517f08c379a00000000000000000000000000000000000000000000000000000000081526004016121a190614625565b60405180910390fd5b80600560008573ffffffffffffffffffffffffffffffffffffffff1673ffffffffffffffffffffffffffffffffffffffff16815260200190815260200160002060008473ffffffffffffffffffffffffffffffffffffffff1673ffffffffffffffffffffffffffffffffffffffff16815260200190815260200160002060006101000a81548160ff0219169083151502179055508173ffffffffffffffffffffffffffffffffffffffff168373ffffffffffffffffffffffffffffffffffffffff167f17307eab39ab6107e8899845ad3d59bd9653f200f220920489ca2b5937696c318360405161229b9190612ffc565b60405180910390a3505050565b6122b3848484611c51565b6122bf848484846129d3565b6122fe576040517f08c379a00000000000000000000000000000000000000000000000000000000081526004016122f5906146b7565b60405180910390fd5b50505050565b606060405180602001604052806000815250905090565b606061232682611ab0565b6000612330612304565b90506000815111612350576040518060200160405280600081525061237b565b8061235a84612391565b60405160200161236b929190613f4b565b6040516020818303038152906040525b915050919050565b600081600001549050919050565b6060600060016123a084612b5a565b01905060008167ffffffffffffffff8111156123bf576123be613251565b5b6040519080825280601f01601f1916602001820160405280156123f15781602001600182028036833780820191505090505b509050600082602001820190505b600115612454578080600190039150507f3031323334353637383961626364656600000000000000000000000000000000600a86061a8153600a8581612448576124476146d7565b5b049450600085036123ff575b819350505050919050565b6124fb848484846040516024016124799493929190614706565b6040516020818303038152906040527f8eafb02b000000000000000000000000000000000000000000000000000000007bffffffffffffffffffffffffffffffffffffffffffffffffffffffff19166020820180517bffffffffffffffffffffffffffffffffffffffffffffffffffffffff838183161783525050505061283d565b50505050565b606060008251036125235760405180602001604052806000815250905061265f565b6000604051806060016040528060408152602001614c0f604091399050600060036002855161255291906145a5565b61255c9190614760565b60046125689190614791565b67ffffffffffffffff81111561258157612580613251565b5b6040519080825280601f01601f1916602001820160405280156125b35781602001600182028036833780820191505090505b509050600182016020820185865187015b8082101561261f576003820191508151603f8160121c168501518453600184019350603f81600c1c168501518453600184019350603f8160061c168501518453600184019350603f81168501518453600184019350506125c4565b505060038651066001811461263b576002811461264e57612656565b603d6001830353603d6002830353612656565b603d60018303535b50505080925050505b919050565b6126fa8160405160240161267891906130a7565b6040516020818303038152906040527f41304fac000000000000000000000000000000000000000000000000000000007bffffffffffffffffffffffffffffffffffffffffffffffffffffffff19166020820180517bffffffffffffffffffffffffffffffffffffffffffffffffffffffff838183161783525050505061283d565b50565b612717828260405180602001604052806000815250612cad565b5050565b61272482612866565b612763576040517f08c379a000000000000000000000000000000000000000000000000000000000815260040161275a90614845565b60405180910390fd5b806006600084815260200190815260200160002090816127839190614865565b505050565b6001816000016000828254019250508190555050565b6128388383836040516024016127b693929190614937565b6040516020818303038152906040527f5970e089000000000000000000000000000000000000000000000000000000007bffffffffffffffffffffffffffffffffffffffffffffffffffffffff19166020820180517bffffffffffffffffffffffffffffffffffffffffffffffffffffffff838183161783525050505061283d565b505050565b60008151905060006a636f6e736f6c652e6c6f679050602083016000808483855afa5050505050565b60008073ffffffffffffffffffffffffffffffffffffffff1661288883611f4a565b73ffffffffffffffffffffffffffffffffffffffff1614159050919050565b60018111156129c757600073ffffffffffffffffffffffffffffffffffffffff168473ffffffffffffffffffffffffffffffffffffffff161461293b5780600360008673ffffffffffffffffffffffffffffffffffffffff1673ffffffffffffffffffffffffffffffffffffffff1681526020019081526020016000206000828254612933919061497c565b925050819055505b600073ffffffffffffffffffffffffffffffffffffffff168373ffffffffffffffffffffffffffffffffffffffff16146129c65780600360008573ffffffffffffffffffffffffffffffffffffffff1673ffffffffffffffffffffffffffffffffffffffff16815260200190815260200160002060008282546129be91906145a5565b925050819055505b5b50505050565b50505050565b60006129f48473ffffffffffffffffffffffffffffffffffffffff16612d08565b15612b4d578373ffffffffffffffffffffffffffffffffffffffff1663150b7a02612a1d611afb565b8786866040518563ffffffff1660e01b8152600401612a3f9493929190614a05565b6020604051808303816000875af1925050508015612a7b57506040513d601f19601f82011682018060405250810190612a789190614a66565b60015b612afd573d8060008114612aab576040519150601f19603f3d011682016040523d82523d6000602084013e612ab0565b606091505b506000815103612af5576040517f08c379a0000000000000000000000000000000000000000000000000000000008152600401612aec906146b7565b60405180910390fd5b805181602001fd5b63150b7a0260e01b7bffffffffffffffffffffffffffffffffffffffffffffffffffffffff1916817bffffffffffffffffffffffffffffffffffffffffffffffffffffffff191614915050612b52565b600190505b949350505050565b600080600090507a184f03e93ff9f4daa797ed6e38ed64bf6a1f0100000000000000008310612bb8577a184f03e93ff9f4daa797ed6e38ed64bf6a1f0100000000000000008381612bae57612bad6146d7565b5b0492506040810190505b6d04ee2d6d415b85acef81000000008310612bf5576d04ee2d6d415b85acef81000000008381612beb57612bea6146d7565b5b0492506020810190505b662386f26fc100008310612c2457662386f26fc100008381612c1a57612c196146d7565b5b0492506010810190505b6305f5e1008310612c4d576305f5e1008381612c4357612c426146d7565b5b0492506008810190505b6127108310612c72576127108381612c6857612c676146d7565b5b0492506004810190505b60648310612c955760648381612c8b57612c8a6146d7565b5b0492506002810190505b600a8310612ca4576001810190505b80915050919050565b612cb78383612d2b565b612cc460008484846129d3565b612d03576040517f08c379a0000000000000000000000000000000000000000000000000000000008152600401612cfa906146b7565b60405180910390fd5b505050565b6000808273ffffffffffffffffffffffffffffffffffffffff163b119050919050565b600073ffffffffffffffffffffffffffffffffffffffff168273ffffffffffffffffffffffffffffffffffffffff1603612d9a576040517f08c379a0000000000000000000000000000000000000000000000000000000008152600401612d9190614adf565b60405180910390fd5b612da381612866565b15612de3576040517f08c379a0000000000000000000000000000000000000000000000000000000008152600401612dda90614b4b565b60405180910390fd5b612df16000838360016128a7565b612dfa81612866565b15612e3a576040517f08c379a0000000000000000000000000000000000000000000000000000000008152600401612e3190614b4b565b60405180910390fd5b6001600360008473ffffffffffffffffffffffffffffffffffffffff1673ffffffffffffffffffffffffffffffffffffffff16815260200190815260200160002060008282540192505081905550816002600083815260200190815260200160002060006101000a81548173ffffffffffffffffffffffffffffffffffffffff021916908373ffffffffffffffffffffffffffffffffffffffff160217905550808273ffffffffffffffffffffffffffffffffffffffff16600073ffffffffffffffffffffffffffffffffffffffff167fddf252ad1be2c89b69c2b068fc378daa952ba7f163c4a11628f55a4df523b3ef60405160405180910390a4612f446000838360016129cd565b5050565b6000604051905090565b600080fd5b600080fd5b60007fffffffff0000000000000000000000000000000000000000000000000000000082169050919050565b612f9181612f5c565b8114612f9c57600080fd5b50565b600081359050612fae81612f88565b92915050565b600060208284031215612fca57612fc9612f52565b5b6000612fd884828501612f9f565b91505092915050565b60008115159050919050565b612ff681612fe1565b82525050565b60006020820190506130116000830184612fed565b92915050565b600081519050919050565b600082825260208201905092915050565b60005b83811015613051578082015181840152602081019050613036565b60008484015250505050565b6000601f19601f8301169050919050565b600061307982613017565b6130838185613022565b9350613093818560208601613033565b61309c8161305d565b840191505092915050565b600060208201905081810360008301526130c1818461306e565b905092915050565b6000819050919050565b6130dc816130c9565b81146130e757600080fd5b50565b6000813590506130f9816130d3565b92915050565b60006020828403121561311557613114612f52565b5b6000613123848285016130ea565b91505092915050565b600073ffffffffffffffffffffffffffffffffffffffff82169050919050565b60006131578261312c565b9050919050565b6131678161314c565b82525050565b6000602082019050613182600083018461315e565b92915050565b6131918161314c565b811461319c57600080fd5b50565b6000813590506131ae81613188565b92915050565b600080604083850312156131cb576131ca612f52565b5b60006131d98582860161319f565b92505060206131ea858286016130ea565b9150509250929050565b60008060006060848603121561320d5761320c612f52565b5b600061321b8682870161319f565b935050602061322c8682870161319f565b925050604061323d868287016130ea565b9150509250925092565b600080fd5b600080fd5b7f4e487b7100000000000000000000000000000000000000000000000000000000600052604160045260246000fd5b6132898261305d565b810181811067ffffffffffffffff821117156132a8576132a7613251565b5b80604052505050565b60006132bb612f48565b90506132c78282613280565b919050565b600067ffffffffffffffff8211156132e7576132e6613251565b5b6132f08261305d565b9050602081019050919050565b82818337600083830152505050565b600061331f61331a846132cc565b6132b1565b90508281526020810184848401111561333b5761333a61324c565b5b6133468482856132fd565b509392505050565b600082601f83011261336357613362613247565b5b813561337384826020860161330c565b91505092915050565b60006020828403121561339257613391612f52565b5b600082013567ffffffffffffffff8111156133b0576133af612f57565b5b6133bc8482850161334e565b91505092915050565b6000602082840312156133db576133da612f52565b5b60006133e98482850161319f565b91505092915050565b6133fb816130c9565b82525050565b600060208201905061341660008301846133f2565b92915050565b60006134278261312c565b9050919050565b6134378161341c565b82525050565b6000602082019050613452600083018461342e565b92915050565b600080fd5b600080fd5b60008083601f84011261347857613477613247565b5b8235905067ffffffffffffffff81111561349557613494613458565b5b6020830191508360018202830111156134b1576134b061345d565b5b9250929050565b600080602083850312156134cf576134ce612f52565b5b600083013567ffffffffffffffff8111156134ed576134ec612f57565b5b6134f985828601613462565b92509250509250929050565b61350e81612fe1565b811461351957600080fd5b50565b60008135905061352b81613505565b92915050565b6000806040838503121561354857613547612f52565b5b60006135568582860161319f565b92505060206135678582860161351c565b9150509250929050565b600067ffffffffffffffff82111561358c5761358b613251565b5b6135958261305d565b9050602081019050919050565b60006135b56135b084613571565b6132b1565b9050828152602081018484840111156135d1576135d061324c565b5b6135dc8482856132fd565b509392505050565b600082601f8301126135f9576135f8613247565b5b81356136098482602086016135a2565b91505092915050565b6000806000806080858703121561362c5761362b612f52565b5b600061363a8782880161319f565b945050602061364b8782880161319f565b935050604061365c878288016130ea565b925050606085013567ffffffffffffffff81111561367d5761367c612f57565b5b613689878288016135e4565b91505092959194509250565b600080600080604085870312156136af576136ae612f52565b5b600085013567ffffffffffffffff8111156136cd576136cc612f57565b5b6136d987828801613462565b9450945050602085013567ffffffffffffffff8111156136fc576136fb612f57565b5b61370887828801613462565b925092505092959194509250565b6000806040838503121561372d5761372c612f52565b5b600061373b8582860161319f565b925050602061374c8582860161319f565b9150509250929050565b600081519050919050565b600082825260208201905092915050565b6000819050602082019050919050565b600082825260208201905092915050565b600061379e82613017565b6137a88185613782565b93506137b8818560208601613033565b6137c18161305d565b840191505092915050565b60006137d88383613793565b905092915050565b6000602082019050919050565b60006137f882613756565b6138028185613761565b93508360208202850161381485613772565b8060005b85811015613850578484038952815161383185826137cc565b945061383c836137e0565b925060208a01995050600181019050613818565b50829750879550505050505092915050565b6000602082019050818103600083015261387c81846137ed565b905092915050565b7f4e487b7100000000000000000000000000000000000000000000000000000000600052602260045260246000fd5b600060028204905060018216806138cb57607f821691505b6020821081036138de576138dd613884565b5b50919050565b7f4552433732313a20617070726f76616c20746f2063757272656e74206f776e6560008201527f7200000000000000000000000000000000000000000000000000000000000000602082015250565b6000613940602183613022565b915061394b826138e4565b604082019050919050565b6000602082019050818103600083015261396f81613933565b9050919050565b7f4552433732313a20617070726f76652063616c6c6572206973206e6f7420746f60008201527f6b656e206f776e6572206f7220617070726f76656420666f7220616c6c000000602082015250565b60006139d2603d83613022565b91506139dd82613976565b604082019050919050565b60006020820190508181036000830152613a01816139c5565b9050919050565b7f4552433732313a2063616c6c6572206973206e6f7420746f6b656e206f776e6560008201527f72206f7220617070726f76656400000000000000000000000000000000000000602082015250565b6000613a64602d83613022565b9150613a6f82613a08565b604082019050919050565b60006020820190508181036000830152613a9381613a57565b9050919050565b600081905092915050565b50565b6000613ab5600083613a9a565b9150613ac082613aa5565b600082019050919050565b6000613ad682613aa8565b9150819050919050565b7f4661696c656420746f207769746864726177204d617469630000000000000000600082015250565b6000613b16601883613022565b9150613b2182613ae0565b602082019050919050565b60006020820190508181036000830152613b4581613b09565b9050919050565b7f4552433732313a20696e76616c696420746f6b656e2049440000000000000000600082015250565b6000613b82601883613022565b9150613b8d82613b4c565b602082019050919050565b60006020820190508181036000830152613bb181613b75565b9050919050565b7f4552433732313a2061646472657373207a65726f206973206e6f74206120766160008201527f6c6964206f776e65720000000000000000000000000000000000000000000000602082015250565b6000613c14602983613022565b9150613c1f82613bb8565b604082019050919050565b60006020820190508181036000830152613c4381613c07565b9050919050565b600081905092915050565b6000613c618385613c4a565b9350613c6e8385846132fd565b82840190509392505050565b6000613c87828486613c55565b91508190509392505050565b600082905092915050565b60008190508160005260206000209050919050565b60006020601f8301049050919050565b600082821b905092915050565b600060088302613d007fffffffffffffffffffffffffffffffffffffffffffffffffffffffffffffffff82613cc3565b613d0a8683613cc3565b95508019841693508086168417925050509392505050565b6000819050919050565b6000613d47613d42613d3d846130c9565b613d22565b6130c9565b9050919050565b6000819050919050565b613d6183613d2c565b613d75613d6d82613d4e565b848454613cd0565b825550505050565b600090565b613d8a613d7d565b613d95818484613d58565b505050565b5b81811015613db957613dae600082613d82565b600181019050613d9b565b5050565b601f821115613dfe57613dcf81613c9e565b613dd884613cb3565b81016020851015613de7578190505b613dfb613df385613cb3565b830182613d9a565b50505b505050565b600082821c905092915050565b6000613e2160001984600802613e03565b1980831691505092915050565b6000613e3a8383613e10565b9150826002028217905092915050565b613e548383613c93565b67ffffffffffffffff811115613e6d57613e6c613251565b5b613e7782546138b3565b613e82828285613dbd565b6000601f831160018114613eb15760008415613e9f578287013590505b613ea98582613e2e565b865550613f11565b601f198416613ebf86613c9e565b60005b82811015613ee757848901358255600182019150602085019450602081019050613ec2565b86831015613f045784890135613f00601f891682613e10565b8355505b6001600288020188555050505b50505050505050565b6000613f2582613017565b613f2f8185613c4a565b9350613f3f818560208601613033565b80840191505092915050565b6000613f578285613f1a565b9150613f638284613f1a565b91508190509392505050565b6000613f7b8385613022565b9350613f888385846132fd565b613f918361305d565b840190509392505050565b60006020820190508181036000830152613fb7818486613f6f565b90509392505050565b7f4e6f7420656e6f756768204d6174696320706169640000000000000000000000600082015250565b6000613ff6601583613022565b915061400182613fc0565b602082019050919050565b6000602082019050818103600083015261402581613fe9565b9050919050565b7f2e00000000000000000000000000000000000000000000000000000000000000600082015250565b6000614062600183613c4a565b915061406d8261402c565b600182019050919050565b60008154614085816138b3565b61408f8186613c4a565b945060018216600081146140aa57600181146140bf576140f2565b60ff19831686528115158202860193506140f2565b6140c885613c9e565b60005b838110156140ea578154818901526001820191506020810190506140cb565b838801955050505b50505092915050565b6000614108828587613c55565b915061411382614055565b915061411f8284614078565b9150819050949350505050565b60006141388286614078565b91506141448285613f1a565b91506141508284614078565b9150819050949350505050565b7f7b226e616d65223a202200000000000000000000000000000000000000000000600082015250565b6000614193600a83613c4a565b915061419e8261415d565b600a82019050919050565b7f222c20226465736372697074696f6e223a20224120646f6d61696e206f6e207460008201527f68652047756a61726174206e616d652073657276696365222c2022696d61676560208201527f223a2022646174613a696d6167652f7376672b786d6c3b6261736536342c0000604082015250565b600061422b605e83613c4a565b9150614236826141a9565b605e82019050919050565b7f222c226c656e677468223a220000000000000000000000000000000000000000600082015250565b6000614277600c83613c4a565b915061428282614241565b600c82019050919050565b7f227d000000000000000000000000000000000000000000000000000000000000600082015250565b60006142c3600283613c4a565b91506142ce8261428d565b600282019050919050565b60006142e482614186565b91506142f08286613f1a565b91506142fb8261421e565b91506143078285613f1a565b91506143128261426a565b915061431e8284613f1a565b9150614329826142b6565b9150819050949350505050565b7f646174613a6170706c69636174696f6e2f6a736f6e3b6261736536342c000000600082015250565b600061436c601d83613c4a565b915061437782614336565b601d82019050919050565b600061438d8261435f565b91506143998284613f1a565b915081905092915050565b7f4e487b7100000000000000000000000000000000000000000000000000000000600052603260045260246000fd5b7f4e487b7100000000000000000000000000000000000000000000000000000000600052601160045260246000fd5b600061440d826130c9565b91507fffffffffffffffffffffffffffffffffffffffffffffffffffffffffffffffff820361443f5761443e6143d3565b5b600182019050919050565b60006040820190508181036000830152614464818561306e565b90508181036020830152614478818461306e565b90509392505050565b7f4552433732313a207472616e736665722066726f6d20696e636f72726563742060008201527f6f776e6572000000000000000000000000000000000000000000000000000000602082015250565b60006144dd602583613022565b91506144e882614481565b604082019050919050565b6000602082019050818103600083015261450c816144d0565b9050919050565b7f4552433732313a207472616e7366657220746f20746865207a65726f2061646460008201527f7265737300000000000000000000000000000000000000000000000000000000602082015250565b600061456f602483613022565b915061457a82614513565b604082019050919050565b6000602082019050818103600083015261459e81614562565b9050919050565b60006145b0826130c9565b91506145bb836130c9565b92508282019050808211156145d3576145d26143d3565b5b92915050565b7f4552433732313a20617070726f766520746f2063616c6c657200000000000000600082015250565b600061460f601983613022565b915061461a826145d9565b602082019050919050565b6000602082019050818103600083015261463e81614602565b9050919050565b7f4552433732313a207472616e7366657220746f206e6f6e20455243373231526560008201527f63656976657220696d706c656d656e7465720000000000000000000000000000602082015250565b60006146a1603283613022565b91506146ac82614645565b604082019050919050565b600060208201905081810360008301526146d081614694565b9050919050565b7f4e487b7100000000000000000000000000000000000000000000000000000000600052601260045260246000fd5b60006080820190508181036000830152614720818761306e565b90508181036020830152614734818661306e565b90508181036040830152614748818561306e565b905061475760608301846133f2565b95945050505050565b600061476b826130c9565b9150614776836130c9565b925082614786576147856146d7565b5b828204905092915050565b600061479c826130c9565b91506147a7836130c9565b92508282026147b5816130c9565b915082820484148315176147cc576147cb6143d3565b5b5092915050565b7f45524337323155524953746f726167653a2055524920736574206f66206e6f6e60008201527f6578697374656e7420746f6b656e000000000000000000000000000000000000602082015250565b600061482f602e83613022565b915061483a826147d3565b604082019050919050565b6000602082019050818103600083015261485e81614822565b9050919050565b61486e82613017565b67ffffffffffffffff81111561488757614886613251565b5b61489182546138b3565b61489c828285613dbd565b600060209050601f8311600181146148cf57600084156148bd578287015190505b6148c78582613e2e565b86555061492f565b601f1984166148dd86613c9e565b60005b82811015614905578489015182556001820191506020850194506020810190506148e0565b86831015614922578489015161491e601f891682613e10565b8355505b6001600288020188555050505b505050505050565b60006060820190508181036000830152614951818661306e565b905061496060208301856133f2565b8181036040830152614972818461306e565b9050949350505050565b6000614987826130c9565b9150614992836130c9565b92508282039050818111156149aa576149a96143d3565b5b92915050565b600081519050919050565b600082825260208201905092915050565b60006149d7826149b0565b6149e181856149bb565b93506149f1818560208601613033565b6149fa8161305d565b840191505092915050565b6000608082019050614a1a600083018761315e565b614a27602083018661315e565b614a3460408301856133f2565b8181036060830152614a4681846149cc565b905095945050505050565b600081519050614a6081612f88565b92915050565b600060208284031215614a7c57614a7b612f52565b5b6000614a8a84828501614a51565b91505092915050565b7f4552433732313a206d696e7420746f20746865207a65726f2061646472657373600082015250565b6000614ac9602083613022565b9150614ad482614a93565b602082019050919050565b60006020820190508181036000830152614af881614abc565b9050919050565b7f4552433732313a20746f6b656e20616c7265616479206d696e74656400000000600082015250565b6000614b35601c83613022565b9150614b4082614aff565b602082019050919050565b60006020820190508181036000830152614b6481614b28565b905091905056fe0a2d2d2d2d2d2d2d2d2d2d2d2d2d2d2d2d2d2d2d2d2d2d2d2d2d2d2d2d2d2d2d2d2d2d2d2d2d2d2d2d2d2d2d2d2d2d2d2d2d2d2d2d2d2d2d2d5265676973746572696e672025732e2573206f6e2074686520636f6e7472616374207769746820746f6b656e49442025642d2d2d2d2d2d2d2d2d2d2d2d2d2d2d2d2d2d2d2d2d2d2d2d2d2d2d2d2d2d2d2d2d2d2d2d2d2d2d2d2d2d2d2d2d2d2d2d2d2d2d2d2d2d2d2d0a4142434445464748494a4b4c4d4e4f505152535455565758595a6162636465666768696a6b6c6d6e6f707172737475767778797a303132333435363738392b2fa2646970667358221220f466d9d8c0cb6241b171c80b3c2a42de152b079162b3984771b2399bad51137a64736f6c634300081100333c73766720786d6c6e733d22687474703a2f2f7777772e77332e6f72672f323030302f737667222077696474683d2232373022206865696768743d22323730222066696c6c3d226e6f6e65223e3c706174682066696c6c3d2275726c282342292220643d224d302030683237307632373048307a222f3e3c646566733e3c66696c7465722069643d22412220636f6c6f722d696e746572706f6c6174696f6e2d66696c746572733d2273524742222066696c746572556e6974733d227573657253706163654f6e55736522206865696768743d22323730222077696474683d22323730223e3c666544726f70536861646f772064783d2230222064793d22312220737464446576696174696f6e3d22322220666c6f6f642d6f7061636974793d222e323235222077696474683d223230302522206865696768743d2232303025222f3e3c2f66696c7465723e3c2f646566733e3c7061746820643d224d37322e3836332034322e393439632d2e3636382d2e3338372d312e3432362d2e35392d322e3139372d2e3539732d312e3532392e3230342d322e3139372e35396c2d31302e30383120362e3033322d362e383520332e3933342d31302e30383120362e303332632d2e3636382e3338372d312e3432362e35392d322e3139372e3539732d312e3532392d2e3230342d322e3139372d2e35396c2d382e3031332d342e37323161342e353220342e35322030203020312d312e3538392d312e363136632d2e3338342d2e3636352d2e3539342d312e3431382d2e3630382d322e313837762d392e3331632d2e3031332d2e3737352e3138352d312e3533382e3537322d322e32303861342e323520342e323520302030203120312e3632352d312e3539356c372e3838342d342e3539632e3636382d2e33383720312e3432362d2e353920322e3139372d2e353973312e3532392e32303420322e3139372e35396c372e38383420342e353961342e353220342e353220302030203120312e35383920312e363136632e3338342e3636352e35393420312e3431382e36303820322e31383776362e3033326c362e38352d342e303635762d362e303332632e3031332d2e3737352d2e3138352d312e3533382d2e3537322d322e32303861342e323520342e32352030203020302d312e3632352d312e3539354c34312e3435362032342e3539632d2e3636382d2e3338372d312e3432362d2e35392d322e3139372d2e3539732d312e3532392e3230342d322e3139372e35396c2d31342e38363420382e36353561342e323520342e32352030203020302d312e36323520312e353935632d2e3338372e36372d2e35383520312e3433342d2e35373220322e3230387631372e343431632d2e3031332e3737352e31383520312e3533382e35373220322e32303861342e323520342e323520302030203020312e36323520312e3539356c31342e38363420382e363535632e3636382e33383720312e3432362e353920322e3139372e353973312e3532392d2e32303420322e3139372d2e35396c31302e3038312d352e39303120362e38352d342e3036352031302e3038312d352e393031632e3636382d2e33383720312e3432362d2e353920322e3139372d2e353973312e3532392e32303420322e3139372e35396c372e38383420342e353961342e353220342e353220302030203120312e35383920312e363136632e3338342e3636352e35393420312e3431382e36303820322e31383776392e333131632e3031332e3737352d2e31383520312e3533382d2e35373220322e32303861342e323520342e32352030203020312d312e36323520312e3539356c2d372e38383420342e373231632d2e3636382e3338372d312e3432362e35392d322e3139372e3539732d312e3532392d2e3230342d322e3139372d2e35396c2d372e3838342d342e353961342e353220342e35322030203020312d312e3538392d312e363136632d2e3338352d2e3636352d2e3539342d312e3431382d2e3630382d322e313837762d362e3033326c2d362e383520342e30363576362e303332632d2e3031332e3737352e31383520312e3533382e35373220322e32303861342e323520342e323520302030203020312e36323520312e3539356c31342e38363420382e363535632e3636382e33383720312e3432362e353920322e3139372e353973312e3532392d2e32303420322e3139372d2e35396c31342e3836342d382e363535632e3635372d2e33393420312e3230342d2e393520312e3538392d312e363136732e3539342d312e3431382e3630392d322e3138375635352e353338632e3031332d2e3737352d2e3138352d312e3533382d2e3537322d322e32303861342e323520342e32352030203020302d312e3632352d312e3539356c2d31342e3939332d382e3738367a222066696c6c3d2223666666222f3e3c646566733e3c6c696e6561724772616469656e742069643d2242222078313d2230222079313d2230222078323d22323730222079323d2232373022206772616469656e74556e6974733d227573657253706163654f6e557365223e3c73746f702073746f702d636f6c6f723d2223636235656565222f3e3c73746f70206f66667365743d2231222073746f702d636f6c6f723d2223306364376534222073746f702d6f7061636974793d222e3939222f3e3c2f6c696e6561724772616469656e743e3c2f646566733e3c7465787420783d2233322e352220793d223233312220666f6e742d73697a653d223237222066696c6c3d2223666666222066696c7465723d2275726c282341292220666f6e742d66616d696c793d22506c7573204a616b617274612053616e732c44656a6156752053616e732c4e6f746f20436f6c6f7220456d6f6a692c4170706c6520436f6c6f7220456d6f6a692c73616e732d73657269662220666f6e742d7765696768743d22626f6c64223e",
  "linkReferences": {},
  "deployedLinkReferences": {}
}